S013000052656E616C79785F444D312E737265630D
S214080000104D0720596C0900516C0900516C090005
S214080010516C0900516C0900516C09000000000081
S214080020000000000000000000000000516C0900FD
S214080030516C090000000000516C09006D2509008C
S214080040516C0900516C0900516C0900516C09008B
S214080050516C0900516C0900516C0900516C09007B
S214080060BD240900516C09000000000081640900E5
S21408007099640900B1640900C96409000000000019
S21408008000000000516C0900516C0900516C090011
S214080090516C0900516C0900516C0900516C09003B
S2140800A0516C090000000000516C0900F924090091
S2140800B0E97A0900516C09004D250900516C0900C0
S2140800C0516C09002D250900516C0900516C090076
S2140800D0516C0900516C0900516C0900516C0900FB
S2140800E0516C0900516C0900516C0900516C0900EB
S2140800F0516C090010B5054C237833B9044B13B17D
S2140801000448AFF300800123237010BD3C1B072072
S2140801100000000074300A00084B10B51BB10848F0
S2140801200849AFF300800848036803B910BD074BB9
S214080130002BFBD0BDE81040184700BF00000000A9
S21408014074300A00401B072074300A0000000000C4
S21408015080B582B000AF78607B68072B30D801A2E4
S21408016052F823F0C1010800850108008D01080037
S214080170950108009D010800A5010800AD010800CA
S214080180B70108000020104B984719E001200E4BD5
S214080190984715E000200D4B984711E010200B4BB0
S2140801A098470DE02020094B984709E000203E219B
S2140801B0074B984704E001203E21054B984700BFAF
S2140801C00837BD4680BD00BF65650900D1650900D2
S2140801D07166090080B582B000AF78607B68072B2F
S2140801E026D801A252F823F0090208000D020800DA
S2140801F00D0208001F0208001F0208001F02080060
S2140802001F0208001F020800012312E00B4B984744
S2140802100346002B14BF01230023DBB209E0084B7A
S21408022098470346002B14BF01230023DBB200E0E7
S214080230002318460837BD4680BD00BF9D650900E7
S214080240E966090080B483B000AF78607B68072B46
S21408025025D801A252F823F0790208007F02080088
S214080260850208008B0208008F0208009302080027
S214080270970208009B0208004FF4FA4310E04FF478
S21408028000430DE04FF400430AE0084B08E0084B33
S21408029006E0084B04E0074B02E0064B00E00023AC
S2140802A018460C37BD465DF8047B704700093D00CC
S2140802B000127A00001BB70080B582B000AF034674
S2140802C0FB7100BFFB791846054B9847034683F039
S2140802D00103DBB2002BF5D10837BD4680BD00BF51
S2140802E0D501080080B586B000AFF8607A603B603C
S2140802F00B46FB727B68002B07D13B68002B04D1AA
S214080300FB684FF470021A6019E0FB7A18460D4B2A
S214080310984702467B68B2FBF3F37B617B693A68D1
S21408032002FB03F37B613B68013B1A04064B134050
S2140803307A68D2B2134343F47C52FB681A601837C3
S214080340BD4680BD450208000000FF0780B582B0A4
S21408035000AF786039603B68002B08D1084B984797
S214080360084A7B681B6843F00053936205E0054A19
S2140803707B681B6843F48033D3610837BD4680BD6D
S2140803800567090000060E4080B582B000AF7860A9
S2140803907B68002B03D1054B9847034602E0044BC5
S2140803A09847034618460837BD4680BD1D670900AE
S2140803B03967090080B582B000AF0346FB71FB7948
S2140803C0033B042B08D8FB791846054B9847FB795E
S2140803D01846044B984700E000BF0837BD4680BD66
S2140803E051010800B902080080B582B000AF7860F5
S2140803F000BF7868044B98470346002BF9D00023C3
S21408040018460837BD4680BD8903080080B500AF8A
S2140804100620044B984702461346DB009B1A5B00EF
S214080420184680BD4502080080B500AF024B9847C5
S21408043003465B08184680BD0D04080090B583B0D7
S21408044000AF104B9847034618460F4B98470620B0
S2140804500E4B98473B1D1846062101220E230C4CCE
S214080460A0473B1D184600210A4B984700200A4B18
S21408047098471020094B9847094B98470C37BD46B4
S21408048090BD00BF29040800816E0900B503080066
S214080490E50208004D030800E9030800E1640900C6
S2140804A0016D090080B584B000AFF860B9607A6065
S2140804B07B681B0203F47062BB681343F86819462E
S2140804C0034B9847002318461037BD4680BD00BF2B
S2140804D0B900072080B584B000AF786039607B68C3
S2140804E01B6823F47063FB603B681B0203F47062AE
S2140804F0FB68134378681946024B98471037BD4681
S21408050080BD00BFB900072080B483B000AF786014
S2140805107B681B6803F470631B0A18460C37BD46D5
S2140805205DF8047B704700BF80B586B000AFF86002
S214080530B9607A60BB680E2B02D0BB680F2B02D15D
S2140805404FF0FF3320E0FB68114A934214BF0123A3
S2140805500023DBB27B610F4B1B681A460E4B1A60F2
S2140805600D4B1A687B681B0223F07F4323F0FF03BA
S214080570B968C9B20B4343F0B44378691946904743
S214080580FB689B6803F0060318461837BD4680BD0F
S214080590000A0E4008001000581B072080B483B0DD
S2140805A000AF78607B68DB6818460C37BD465DF898
S2140805B0047B704780B483B000AF78607B680822FD
S2140805C01A607B6820221A607B6804221A600C373F
S2140805D0BD465DF8047B704780B584B000AF786090
S2140805E039600023FB607B684FF0FF329A627B68B5
S2140805F01B6A78680F4B984778680F4B98473B6894
S2140806005A683B681B68786811461A460B4B984729
S2140806100346012B01D10123FB603B685B7A012B63
S21408062002D17B6840221A60FB6818461037BD4620
S21408063080BD00BFBD060800B505080041060800D5
S21408064080B487B000AFF860B9607A6000237B6139
S214080650BB68184A934201D9012324E0BB685B00B3
S2140806607A68B2FBF3F3043B3B6105E07B69013330
S2140806707B613B695B083B613B69FF2B02D97B6961
S214080680062BF3D90C4A3B6913603B69DAB23B691F
S2140806901B029BB21A437B691B0403F4E0231A432C
S2140806A0FB681A61002318461C37BD465DF8047BB4
S2140806B0704700BF801A06005C1B072080B483B012
S2140806C000AF78607B6880221A607B681B6B0C37EB
S2140806D0BD465DF8047B704780B487B000AFF8600D
S2140806E0B9607A603B60BB68B3F5402F0BD3174BF5
S2140806F07B61BB68A3F540231B0A7B82BB689BB261
S214080700DBB23B820AE0124B7B61BB68A3F5002391
S2140807101B0A7B82BB689BB2DBB23B82FB68002B62
S21408072002D0FB687A691A607B68002B02D07B6867
S2140807307A8A1A803B68002B02D03B683A8A1A806D
S2140807401C37BD465DF8047B704700BF000C0E40A2
S214080750000A0E4080B487B000AFF8607B600B4696
S2140807607B8113463B81FB680D4A934206D17B8901
S21408077003F500631A023B89134405E07B8903F5F9
S21408078040631A023B8913447B617B68002B02D0C6
S2140807907B687A691A601C37BD465DF8047B70472B
S2140807A0000A0E4080B487B000AFF860B9607A607F
S2140807B03B60FB6823F47F5323F03F037B61BB68F1
S2140807C023F47F5323F03F0303F57F533F333B6106
S2140807D07B68002B02D07B687A691A603B68002B1E
S2140807E002D03B683A691A601C37BD465DF8047B40
S2140807F0704700BF80B582B000AF786039600748A0
S21408080079683A68064B9847064879683A68044B08
S2140808109847002318460837BD4680BD000A0E4094
S214080820A5040800000C0E4090B58FB000AFF86025
S214080830B9607A603B604D4BBB6207F1180107F15F
S214080840160207F114030846F968494CA047BB6925
S2140808501846484B98477862BB6918460621464BA7
S214080860984776E0BB8AC3F580727B68934228BFB8
S21408087013463B62B969FA8A07F11003084611461F
S21408088000223E4CA047BB8A5B429AB23B6A9BB2A8
S214080890D31A9BB203F58073FB833B691A46BB8A5F
S2140808A0B86A11461A46364B9847BB8A1A46BB6A38
S2140808B013441846B9683A6A314B9847BB8A1A46B1
S2140808C03B6A1344BA6AD118BB8A1A463B691A446B
S2140808D03B6A13441A46FB8B084611461A46284BB1
S2140808E098473B69FB6200233B630AE0FB6A1A1DD4
S2140808F0FA621E493A6B51F822201A603B6B0133A4
S2140809003B633B6B3F2BF1D93B68002B07D0BB6999
S214080910FA8A184603211B4B9847786306E0BB699A
S214080920FA8A18460121174B984778637B6B002B89
S21408093001D07B6B16E0BA683B6A1344BB607A68E2
S2140809403B6AD31A7B60FB8A01339BB2FB82002387
S214080950BB827B68002B85D1BB691846796A064B33
S2140809609847002318463C37BD4690BD601B0720B5
S214080970D906080009050800D50408005507080028
S214080980BDF809002905080090B58BB000AFF860DF
S214080990B9607A603B604023FB8407F1180207F1D0
S2140809A01403F868B9681E4CA0477B68002B02D071
S2140809B0BA697B681A603B68002B02D07A693B6884
S2140809C01A60BA6907F11C0107F1120308461146B6
S2140809D01A460023134CA0477A6907F11003002033
S2140809E011461A4600230F4CA04710E0FB697A8A86
S2140809F0184608210C4B984738623B6A002B01D0F2
S214080A003B6A09E07A8AFB8C13449BB27B827A8A1B
S214080A103B8A9A42EAD3002318462C37BD4690BD37
S214080A20A5070800D90608002905080090B58BB068
S214080A3000AFF860B9607A603B604023FB8407F13A
S214080A40180207F11403F868B9681E4CA0477B68BB
S214080A50002B02D0BA697B681A603B68002B02D06C
S214080A607A693B681A60BA6907F11C0107F1120334
S214080A70084611461A460023134CA0477A6907F120
S214080A801003002011461A4600230F4CA04710E01A
S214080A90FB697A8A184609210C4B984738623B6AE4
S214080AA0002B01D03B6A09E07A8AFB8C13449BB280
S214080AB07B827A8A3B8A9A42EAD3002318462C37E6
S214080AC0BD4690BDA5070800D906080029050800F8
S214080AD080B582B000AF78607B68022B01D91123FD
S214080AE012E078680A4B98470346012B01D1002389
S214080AF00AE008480B217A68074B98470346002BFC
S214080B0001D1002300E0102318460837BD4680BDF3
S214080B101D0B0800000A0E402905080080B584B0A1
S214080B2000AF78607B68022B01D9112319E00F48C3
S214080B300D2100220E4B98470346002B01D01023A8
S214080B400FE00A480B4B9847F8607B68012202FAC8
S214080B5003F31A46FB681340002B01D0012300E07C
S214080B60002318461037BD4680BD00BF000A0E4059
S214080B70290508009D05080080B500AF0020024B37
S214080B8098470346184680BDD10A080080B500AFCE
S214080B90034B9847034B9847034B9847184680BD26
S214080BA0AD0B0800D5DD0800D1DB080080B400AF27
S214080BB03C4B0A221A803B4B42F210725A80394B41
S214080BC000229A80374B42F21072DA80354B364A4A
S214080BD09A60344B354ADA60324B334A1A61314BE5
S214080BE0324A5A612F4B324A9A612E4B2F4ADA61A3
S214080BF02C4B2F4A1A622B4B2C4A5A62294B2C4AEA
S214080C009A62284B294ADA62264B2A4A9A63254B67
S214080C10294ADA63234B294A1A64224B264A5A641D
S214080C20204B274A9A641F4B264ADA641D4B264AED
S214080C301A651C4B42F21072A3F85420194B002276
S214080C40A3F85620174B42F21072A3F85820154BFB
S214080C500022A3F85A20134B42F21072A3F85C2025
S214080C60104B0022A3F85E200E4B0522A3F8602046
S214080C700C4B1422A3F862200A4B1E22A3F8642009
S214080C80084B0522A3F86620064B1E22A3F8682008
S214080C90044B0522A3F86A201846BD465DF8047B77
S214080CA0704700BF3C2707200000FA43000096C3A1
S214080CB00080BB44000020420000A0400000244200
S214080CC000001842000040400000344200000000C7
S214080CD02DE9904383B000AF804B1B8C1A4640F634
S214080CE0E44303FB02F3002B01DA03F6FF731B133E
S214080CF01A467B4B1046984703467B60794B7868C4
S214080D00984703469BB21846774B9847774B93F815
S214080D103A30002B0ED0182075490522754B984797
S214080D20724B1B8F1AB26E4B104698470246724B90
S214080D301A6017E0704B1A68704B1046704998474F
S214080D40034619466F4B1A686F4B08461146984774
S214080D5003461A466D4B10466D49984703461A4691
S214080D60654B1A605D4B5B8C1A4640F6E44303FB02
S214080D7002F3002B01DA03F6FF731B131A46584BCF
S214080D801046984703467B60564B78689847034654
S214080D909BB218465F4B9847544B93F83E30002B4F
S214080DA00ED018205C490522524B98474F4B9B8F14
S214080DB01AB24B4B104698470246584B1A6017E033
S214080DC0564B1A684D4B10464D49984703461946E8
S214080DD0534B1A684C4B08461146984703461A4622
S214080DE04A4B10464A49984703461A464B4B1A60E0
S214080DF03A4B9B8C1A4640F6E44303FB02F3002B5F
S214080E0001DA03F6FF731B131A46354B104698474C
S214080E1003467B60334B7868984703469BB2184670
S214080E20404B9847314B93F84230002B0FD0182090
S214080E303D4905222F4B98472C4BB3F840301AB241
S214080E40274B104698470246384B1A6017E0374B30
S214080E501A682A4B10462A49984703461946344BBF
S214080E601A68294B08461146984703461A46274BE0
S214080E7010462749984703461A462C4B1A60174BC4
S214080E80DB891A4640F6E44303FB02F3002B01DA3B
S214080E9003F6FF731B131A46114B10469847034672
S214080EA07B60104B7868984703469BB21846214BE0
S214080EB098470E4B93F82E30002B41D018201E4929
S214080EC005220C4B9847094B9B8D1AB2044B1046CB
S214080ED098470246194B1A604AE000BF6428072064
S214080EE085F3090005F8090065360800342B072045
S214080EF014280A00ED730900781C07202DF4090051
S214080F0000004442AC1C07201DF2090095F50900B4
S214080F1000004842793708001C280A007C1C072075
S214080F20B01C07208D38080024280A00801C0720DB
S214080F30B41C07203D3408002C280A00880A07201D
S214080F40914B1A68914B10469149984703461946A3
S214080F50904B1A68904B08461146984703461A461F
S214080F608E4B10468E49984703461A46864B1A609B
S214080F708C4B1B8A1A4640F6E44303FB02F3002B0D
S214080F8001DA03F6FF731B131A46874B1046984779
S214080F9003467B60854B7868984703469BB218469D
S214080FA0834B9847834B93F83230002B0ED018208B
S214080FB081490522814B98477E4B1B8E1AB27A4B85
S214080FC01046984702467E4B1A6017E07C4B1A6814
S214080FD06E4B10466E49984703461946794B1A6871
S214080FE06D4B08461146984703461A466B4B104603
S214080FF06B49984703461A46714B1A60694BDB8C57
S2140810001A46714B1046984702460B466F4C1046D8
S21408101019465BA3D3E90023A04702460B461046B1
S21408102019466B4B984703467B6078680021694BE6
S2140810309847604B93F84A30002B0FD01820664923
S21408104007225E4B98475B4BB3F848301AB2564BAC
S214081050104698470246614B1A6017E05F4B1A68BD
S2140810604A4B10464A499847034619465C4B1A6845
S214081070494B08461146984703461A46474B1046BA
S2140810804749984703461A46544B1A60454B1B8DEA
S2140810901A464D4B1046984702460B464B4C104690
S2140810A0194637A3D3E90023A04702460B46104645
S2140810B01946474B984703467B6078680121454B9D
S2140810C098473C4B93F84E30002B0FD018204549D4
S2140810D007223A4B9847374BB3F84C301AB2324B84
S2140810E0104698470246404B1A6017E03E4B1A686F
S2140810F0264B104626499847034619463B4B1A681E
S214081100254B08461146984703461A46234B104671
S2140811102349984703461A46334B1A60214B5B8D82
S2140811201A46294B1046984702460B46274C104647
S214081130194613A3D3E90023A04702460B461046D8
S2140811401946234B984703467B6078680221214B53
S2140811509847184B93F85230002B4DD01820244946
S2140811600722164B9847134BB3F850301AB20E4B5B
S2140811701046984702461F4B1A6055E0AFF30080AA
S214081180C3F5285C8FC2E93F880A07202DF40900BA
S21408119000004442A82707201DF2090095F509001B
S2140811A0000048426428072085F3090005F809006E
S2140811B051350800342B07202C280A00ED73090047
S2140811C0741C0720A81C0720E1EA0900ADEB0900FB
S2140811D071F10900E53A080034280A00841C072043
S2140811E0B81C07203C280A00881C0720BC1C0720BF
S2140811F044280A008C1C0720554B1A68554B104685
S2140812005549984703461946544B1A68544B08469E
S2140812101146984703461A46524B10465249984775
S21408122003461A464A4B1A60504BDB8D1A46504BFB
S2140812301046984702460B464E4C1046194640A3A1
S214081240D3E90023A04702460B46104619464A4BE8
S214081250984703467B607868484B9847484B9B7F7F
S214081260002B0ED0182047490522474B9847444B79
S2140812709B8B1AB2454B104698470246444B1A6059
S21408128057E0444B1A68334B104643499847034681
S2140812901946424B1A68324B084611469847034689
S2140812A01A46304B10463E49984703461A46394B6D
S2140812B01A60384B1A683B4B104698478046894652
S2140812C0234B1A68374B1046984702460B46364C4F
S2140812D0104619464FF00002344BA04702460B460C
S2140812E0244C1046194618A3D3E90023A047024603
S2140812F00B462F4C104619464FF000022D4BA047C0
S21408130002460B462C4C40464946A04702460B462A
S21408131010461946184B984702461D4B1A601C4B38
S2140813201A68104B10461C49984703461A46184B2D
S2140813301A6018460C37BD46BDE89083AFF30080A8
S214081340C3F5285C8FC2E93F1B2FDD240681953F35
S2140813508C1C07202DF4090000004442C01C0720FE
S2140813601DF2090095F50900000048426428072088
S214081370E1EA0900ADEB090071F10900A13908009E
S214081380342B07204C280A00ED73090085F3090062
S214081390941C0720901C072000002041B027072037
S2140813A00000304105EB090045E809000000394017
S2140813B049E809000000F03F01EE090080B500AFDB
S2140813C0AB4B9847AB4B93F80232002B41D0A94B56
S2140813D093F8F931012B04D1A74B93F83F30002B33
S2140813E009D1A44B93F8F931002B2ED1A24B93F8D0
S2140813F03F30002B29D19F4B93F8FA31012B23D08D
S2140814009C4B012283F8FA219C4B1B789B4A01339C
S214081410DB0013442A229A80964B93F80132013354
S214081420DAB2944B83F80122954B01221A70954B39
S2140814302A221A70914B1B781A46904B13442A227C
S2140814409A70914B984704E003E08A4B042283F88D
S214081450FA21884B93F80E32002B41D0854B93F82F
S2140814600532012B04D1844B93F84030002B09D168
S214081470804B93F80532002B2ED17F4B93F84030E3
S214081480002B29D17B4B93F80632012B23D0794BBE
S214081490012283F80622794B1B78784A0133DB0051
S2140814A013442B229A80734B93F80D320133DAB229
S2140814B0704B83F80D22724B01221A70714B2B2247
S2140814C01A706E4B1B781A466C4B13442A229A7075
S2140814D06D4B984704E003E0664B042283F8062227
S2140814E0644B93F88A31002B2BD0634BDB8A002B96
S2140814F023D1604B012283F88221604B1B785F4A18
S2140815000133DB00134420229A805A4B93F8893122
S2140815100133DAB2574B83F88921594B01221A70E6
S214081520584B20221A70554B1B781A46534B1344B7
S2140815302A229A70544B984703E04E4B042283F8AD
S21408154082214C4B93F89631002B2BD04A4B1B8BA1
S214081550002B23D0474B012283F88E21474B1B785C
S214081560464A0133DB00134421229A80414B93F804
S21408157095310133DAB23F4B83F89521404B01226F
S2140815801A70404B21221A703C4B1B781A463B4B6C
S21408159013442A229A703C4B984703E0354B0422A2
S2140815A083F88E21334B93F8AE31002B2BD0324B79
S2140815B01B8F002B23D02F4B012283F8A6212F4BFD
S2140815C01B782E4A0133DB00134423229A80294BCA
S2140815D093F8AD310133DAB2264B83F8AD21284BA8
S2140815E001221A70274B23221A70244B1B781A469E
S2140815F0224B13442A229A70234B984703E01D4B2C
S214081600042283F8A6211B4B93F8C631002B4CD036
S2140816101E4B99681E4B1A681E4B0846114698477B
S2140816200346002B38D0134B012283F8BE21134BF8
S2140816301B78124A0133DB00134425229A800D4B8F
S21408164093F8C5310133DAB20A4B83F8C5210C4B3F
S21408165001221A700B4B25221A70084B1B781A4663
S214081660064B13442A229A70074B98471DE000BF82
S214081670D10C08005024072064280720A429072036
S214081680711C072038270720A52808003C270720B4
S214081690880A072069F70900A44B93F8BE31012B86
S2140816A003D1A24B042283F8BE21A04B93F8BA318B
S2140816B0002B3CD018209E490B229E4B98479E4BE9
S2140816C0D9689E4B1A689E4B0846114698470346AB
S2140816D0002B23D0954B012283F8B221994B1B7817
S2140816E0984A0133DB00134424229A808F4B93F8E0
S2140816F0B9310133DAB28D4B83F8B921924B012206
S2140817001A70924B24221A708E4B1B781A468D4BF1
S21408171013442A229A708E4B984708E0834B93F816
S214081720B231012B03D1814B042283F8B2217F4BBF
S21408173093F8DE31002B3CD01820864907227D4BD3
S21408174098477D4B1969844B1A68844B084611469E
S21408175098470346002B23D0744B012283F8D621E2
S214081760784B1B78774A0133DB00134427229A808C
S2140817706E4B93F8DD310133DAB26C4B83F8DD211A
S214081780714B01221A70714B27221A706D4B1B7809
S2140817901A466C4B13442A229A706D4B984708E0F9
S2140817A0624B93F8D631012B03D1604B042283F8A1
S2140817B0D6215E4B93F8D231002B37D05E4B596951
S2140817C0654B1A685E4B0846114698470346002B39
S2140817D023D0564B012283F8CA215A4B1B78594A04
S2140817E00133DB00134426229A80504B93F8D131FC
S2140817F00133DAB24D4B83F8D121534B01221A70CC
S214081800524B27221A704F4B1B781A464D4B1344DF
S2140818102A229A704E4B984708E0444B93F8CA31F0
S214081820012B03D1414B042283F8CA213F4B9B7DF1
S214081830002B3BD03D4B5B7B012B03D1484B1B78E1
S214081840002B0AD1394B5B7B002B2CD1444B1B78E1
S21408185083F00103DBB2002B25D0344B9B7B012B96
S21408186020D0324B01229A73364B1B78354A013307
S214081870DB00134401229A802C4B5B7D0133DAB2DD
S2140818802A4B5A75304B01221A70304B01221A70B7
S2140818902C4B1B781A462B4B13442A229A702C4B37
S2140818A0984703E002E0214B04229A731F4B93F8F3
S2140818B02E30002B5AD01D4B93F82530012B04D11F
S2140818C0274B93F83A30002B0CD1184B93F8253059
S2140818D0002B47D1224B93F83A3083F00103DBB252
S2140818E0002B3FD0114B012283F82620154B1B787E
S2140818F0144A0133DB00134403229A800B4B93F8F7
S2140819002D300133DAB2094B83F82D200E4B012215
S2140819101A700E4B03221A700A4B1B781A46094B8C
S21408192013442A229A700A4B98471FE0502407202F
S21408193058280A00ED7309003C270720880A072064
S214081940A5F70900A4290720711C072038270720B7
S214081950A528080064280A00741C072069F70900EF
S21408196064280720AE4B042283F82620AC4B93F855
S2140819704630002B3ED0AA4B93F83D30012B04D1BD
S214081980A84B93F83A30002B0CD1A54B93F83D3072
S214081990002B2BD1A34B93F83A3083F00103DBB22C
S2140819A0002B23D09E4B012283F83E209E4B1B78AB
S2140819B09D4A0133DB00134403229A80984B93F820
S2140819C045300133DAB2964B83F84520974B01220F
S2140819D01A70974B05221A70934B1B781A46924B2F
S2140819E013442A229A70934B984703E08C4B0422A0
S2140819F083F83E208A4B93F83A30002B3ED0884B2B
S214081A0093F83130012B04D1864B93F83B30002BEA
S214081A100CD1834B93F83130002B2BD1814B93F8A4
S214081A203B3083F00103DBB2002B23D07C4B012232
S214081A3083F832207C4B1B787B4A0133DB00134447
S214081A4004229A80764B93F839300133DAB2744B15
S214081A5083F83920754B01221A70754B04221A70C8
S214081A60714B1B781A46704B13442A229A70714B96
S214081A70984703E06A4B042283F83220684B93F8B1
S214081A805230002B3ED0664B93F84930012B04D1D8
S214081A90644B93F83B30002B0CD1614B93F84930DC
S214081AA0002B2BD15F4B93F83B3083F00103DBB25E
S214081AB0002B23D05A4B012283F84A205A4B1B7816
S214081AC0594A0133DB00134406229A80544B93F894
S214081AD051300133DAB2524B83F85120534B01226E
S214081AE01A70534B06221A704F4B1B781A464E4BE9
S214081AF013442A229A704F4B984703E0484B042217
S214081B0083F84A20464B93F8CE32002B38D0454B04
S214081B105B8B002B2CD1424B012283F8C622424B0A
S214081B201B78414A0133DB0013443B229A803C4B26
S214081B3093F8CD320133DAB2394B83F8CD223B4BDA
S214081B4001221A703A4B3B221A70374B1B781A46FA
S214081B50354B134429229A70364B9847324B1B78DC
S214081B601A46314B13442B229A70324B984707E09B
S214081B702B4B042283F8C622294B002283F8CD2259
S214081B80284BDB8E002B02D02B4B01221A70254BDC
S214081B90DB8E002B02D1284B02221A70204B93F8BA
S214081BA0DA32002B56D01F4B93F83430002B04D073
S214081BB01B4B93F8D132012B0CD01A4B93F83430C8
S214081BC083F00103DBB2002B44D0154B93F8D132D7
S214081BD0002B3FD1124B93F8D232012B30D0104B4A
S214081BE0022283F8DE220E4B012283F8D2220E4B05
S214081BF01B780D4A0133DB0013443C229A800B4BBA
S214081C0001221A700A4B3C221A70074B1B781A4698
S214081C10054B13442A229A70084B01221A7016E0C4
S214081C205024072064280720A4290720711C0720B1
S214081C3038270720A5280800381E0720601E07201A
S214081C40AA4B002283F8D922A94B00221A70A94B66
S214081C5000221A60A54B93F8E632002B43D0A64B19
S214081C6093F83430002B04D0A04B93F8DD32012BC8
S214081C700CD0A14B93F8343083F00103DBB2002B71
S214081C8031D09A4B93F8DD32002B2CD1974B93F832
S214081C90DE32012B1DD0954B93F8E632002B1FD071
S214081CA0924B022283F8D222904B012283F8DE223E
S214081CB08F4B01221A70914B3D221A70904B1B785D
S214081CC01A468F4B13442A229A708E4B02221A7099
S214081CD006E0864B002283F8E522854B00221A7020
S214081CE0844B01221A60814B93F80631002B3DD0B5
S214081CF07E4B93F8FE30012B2FD0834B9969834B8C
S214081D001A68834B0846114698470346002B00D1AD
S214081D102CE0764B012283F8FE20794B1B78784A14
S214081D200133DB00134415229A80704B93F8053173
S214081D300133DAB26D4B83F805216D4B01221A7018
S214081D406E4B15221A706E4B1B781A466C4B134452
S214081D502A229A706F4B984708E0644B93F8FE3037
S214081D60012B03D1614B042283F8FE205F4B93F8C6
S214081D701231002B3DD05D4B93F80A31012B2FD042
S214081D80614BD969614B1A68634B084611469847F8
S214081D900346002B00D12CE0544B012283F80A217D
S214081DA0574B1B78564A0133DB00134416229A8099
S214081DB04E4B93F811310133DAB24C4B83F81121AC
S214081DC04B4B01221A704D4B16221A704C4B1B783F
S214081DD01A464B4B13442A229A704E4B984708E0F3
S214081DE0424B93F80A31012B03D1404B042283F867
S214081DF00A213E4B93F81E31002B3DD03B4B93F8FF
S214081E001631012B2FD0404B196A444B1A68404BA9
S214081E100846114698470346002B00D12CE0334B62
S214081E20012283F81621364B1B78354A0133DB002E
S214081E30134417229A802D4B93F81D310133DAB2DA
S214081E402A4B83F81D212A4B01221A702B4B172286
S214081E501A702B4B1B781A46294B13442A229A7061
S214081E602C4B984708E0214B93F81631012B03D1E9
S214081E701E4B042283F816211C4B93F82A31002B9C
S214081E8057D01A4B93F82231012B49D01E4B596A6A
S214081E90224B1A68204B0846114698470346002BE3
S214081EA000D146E0114B012283F82221144B1B78FF
S214081EB0134A0133DB00134418229A800B4B93F81D
S214081EC029310133DAB2094B83F82921084B01225C
S214081ED01A700A4B18221A70094B1B781A46084BB8
S214081EE013442A229A700B4B984722E05024072066
S214081EF0711C0720080107206428072038270720B8
S214081F00A4290720601E07203C270720781C0720E6
S214081F1069F70900A5280800A5F709007C1C072012
S214081F208E4B93F82231012B03D18C4B042283F875
S214081F3022218A4B93F8EA31002B3CD0884B996AC9
S214081F40884B1A68884B0846114698470346002B64
S214081F5028D0824B93F8E231012B23D07F4B012205
S214081F6083F8E221814B1B78804A0133DB00134457
S214081F7028229A80794B93F8E9310133DAB2774B05
S214081F8083F8E9217A4B01221A707A4B28221A70B4
S214081F90764B1B781A46754B13442A229A70764B52
S214081FA0984708E06D4B93F8E231012B03D16B4B51
S214081FB0042283F8E221694B93F8F631002B50D0BF
S214081FC0674BD96A674B1A686C4B084611469847A0
S214081FD00346002B3CD0614B93F8EE31012B37D0EB
S214081FE0604B1A68604B10464FF00001984703464E
S214081FF0002B09D05B4B1A68614B1046614998471D
S21408200003461A46574B1A60544B012283F8EE21B2
S214082010564B1B78554A0133DB00134429229A8015
S2140820204E4B93F8F5310133DAB24C4B83F8F52171
S2140820304F4B01221A704F4B29221A704B4B1B78B4
S2140820401A464A4B13442A229A704B4B984708E084
S214082050424B93F8EE31012B03D1404B042283F810
S214082060EE213E4B93F8BE30002B3ED03C4B996B8E
S214082070454B1A683C4B0846114698470346002BC2
S21408208023D0364B012283F8B620384B1B78374AC4
S2140820900133DB0013440F229A80304B93F8BD308F
S2140820A00133DAB22D4B83F8BD20314B01221A706A
S2140820B0304B0F221A702D4B1B781A462B4B1344A5
S2140820C02A229A702C4B98470FE0244B93F8B63088
S2140820D0012B0AD1214B042283F8B6201F4B00227D
S2140820E083F8BD20224B00221A701C4B93F8CA3086
S2140820F0002B5BD01A4BD96B234B1A681F4B08462C
S214082100114698470346002B40D0144B93F8C2302C
S214082110012B4BD0114B012283F8C220134B1B789E
S214082120124A0133DB00134410229A800B4B93F8B3
S214082130C9300133DAB2094B83F8C9200C4B0122A7
S2140821401A700C4B10221A70084B1B781A46074B4D
S21408215013442A229A70084B984727E050240720F1
S2140821603C270720801C072069F70900A4290720B8
S214082170711C072038270720A5280800A5F709009E
S2140821801DF2090000007A44841C0720914B93F83E
S214082190C230012B0AD18F4B042283F8C2208D4B04
S2140821A0002283F8C9208C4B00221A70894B93F8BA
S2140821B0EE30002B43D0894B996C894B1A68894BB3
S2140821C00846114698470346002B28D0814B93F8BB
S2140821D0E630012B33D07F4B012283F8E620824B72
S2140821E01B78814A0133DB00134413229A80794B0B
S2140821F093F8ED300133DAB2764B83F8ED20764B60
S21408220001221A70794B13221A70774B1B781A46DC
S214082210754B13442A229A70754B98470FE06D4BFE
S21408222093F8E630012B0AD16A4B042283F8E6209D
S214082230684B002283F8ED20674B00221A70654B26
S21408224093F8FA30002B43D0644BD96C644B1A6869
S214082250684B0846114698470346002B28D05D4B26
S21408226093F8F230012B33D05A4B012283F8F22030
S2140822705D4B1B785C4A0133DB00134414229A80BA
S214082280544B93F8F9300133DAB2524B83F8F920FD
S214082290514B01221A70554B14221A70524B1B7858
S2140822A01A46514B13442A229A70514B98470FE00E
S2140822B0484B93F8F230012B0AD1464B042283F898
S2140822C0F220444B002283F8F920434B00221A7070
S2140822D0404B93F8D630002B43D0404B196C464BF6
S2140822E01A68404B0846114698470346002B28D0E4
S2140822F0384B93F8CE30012B33D0364B012283F877
S214082300CE20394B1B78384A0133DB0013441122A0
S2140823109A80304B93F8D5300133DAB22D4B83F8D8
S214082320D5202D4B01221A70304B11221A702E4BD5
S2140823301B781A462C4B13442A229A702C4B984723
S2140823400FE0244B93F8CE30012B0AD1214B042200
S21408235083F8CE201F4B002283F8D5201E4B002280
S2140823601A701C4B93F8E230002B57D01B4B596C55
S214082370214B1A681F4B0846114698470346002B00
S2140823803CD0144B93F8DA30012B47D0114B01227E
S21408239083F8DA20144B1B78134A0133DB00134406
S2140823A012229A800B4B93F8E1300133DAB2094BCC
S2140823B083F8E120084B01221A700C4B12221A707F
S2140823C0094B1B781A46084B13442A229A70084B66
S2140823D0984723E050240720711C07203C27072035
S2140823E08C1C072069F70900A4290720382707202E
S2140823F0A5280800A5F70900881C0720A64B93F80F
S214082400DA30012B0AD1A44B042283F8DA20A24B37
S214082410002283F8E120A14B00221A709E4B93F805
S2140824206A30002B43D09E4B5B881AB29D4B1046F1
S214082430984701469C4B1A689C4B08461146984795
S2140824400346002B23D0944B012283F86220984B36
S2140824501B78974A0133DB00134408229A808E4B78
S21408246093F869300133DAB28B4B83F869208B4BCB
S21408247001221A708F4B08221A708D4B1B781A4649
S2140824808B4B13442A229A708B4B98470FE0824B4B
S21408249093F86230012B0AD17F4B042283F862201E
S2140824A07D4B002283F869207C4B00221A707A4BF9
S2140824B093F85E30002B43D0794B1B881AB2794BC1
S2140824C0104698470146784B1A687C4B08461146D2
S2140824D098470346002B23D06F4B012283F85620DB
S2140824E0734B1B78724A0133DB00134407229A8029
S2140824F0694B93F85D300133DAB2674B83F85D2099
S214082500664B01221A706B4B07221A70684B1B78B1
S2140825101A46674B13442A229A70674B98470FE06F
S2140825205D4B93F85630012B0AD15B4B042283F897
S2140825305620594B002283F85D20584B00221A700B
S214082540554B93F87630002B0AD1534B93F88230CC
S214082550002B05D1504B93F88E30002B00F0FA80F4
S214082560574B00221A705648564B9847544B1B78C0
S2140825700A2B4BD00B2B00F0A780092B40F0EA80E3
S2140825804F4B1B781946444A0B465B000B449B008E
S214082590134401229A70404B042283F87A203E4B5B
S2140825A0042283F88620424B1B781846444B1B7837
S2140825B099B23F4A431CDB0013440A469A80404BB4
S2140825C01B781A46344913465B0013449B000B4499
S2140825D008335B780133D8B22F4913465B0013449F
S2140825E09B000B44083302465A702C4B01221A7083
S2140825F0334B1A782F4B1A702D4B1B781A462C4BD8
S21408260013442A229A702C4B9847A3E02C4B1B782D
S2140826101946214A0B465B000B449B0013440122D3
S2140826209A701D4B042283F86E201B4B042283F8F5
S21408263086201F4B1B781846214B1B7899B21C4ADC
S214082640431CDB0013440A469A801D4B1B781A4627
S214082650114913465B0013449B000B4408335B7810
S2140826600133D8B20C4913465B0013449B000B4455
S214082670083302465A70094B01221A70104B1A7812
S2140826800C4B1A700A4B1B781A46094B13442A221D
S2140826909A70094B98475DE050240720711C072064
S2140826A03C27072085F30900941C072069F70900D2
S2140826B0A429072038270720A5280800A5F7090019
S2140826C0701C0720952C08006A4B1B7819466A4A26
S2140826D00B465B000B449B00134401229A70664B22
S2140826E0042283F86E20644B042283F87A20634B16
S2140826F01B7818465F4B1B7899B2604A431CDB0070
S21408270013440A469A805B4B1B781A465A49134666
S2140827105B0013449B000B4408335B780133D8B244
S214082720554913465B0013449B000B440833024686
S2140827305A70534B01221A704E4B1A78514B1A7026
S2140827404E4B1B781A464D4B13442A229A704E4B12
S214082750984700BF4D4B1B78002B00F08880464BEF
S21408276093F89A30002B09D1434B93F8A630002BE8
S21408277004D1414B93F8B230002B78D0444BDB8E13
S2140827801A46444B1B689A420CD0434B00221A60E8
S214082790424B1B680133414A1360414B1B680133A7
S2140827A03F4A13603C4B1B68282B2BD9324B93F8B7
S2140827B09230012B26D0304B012283F892202F4BE3
S2140827C01B782E4A0133DB0013440C229A802A4BCE
S2140827D093F899300133DAB2274B83F89920264BC1
S2140827E0042283F89220264B01221A70254B0C22CD
S2140827F01A70224B1B781A46204B134429229A70CB
S214082800214B9847254B1B68022B2BD91A4B93F85C
S214082810AA30012B26D0184B012283F8AA20174B82
S2140828201B78164A0133DB0013440E229A80124B9B
S21408283093F8B1300133DAB20F4B83F8B1200E4B60
S214082840042283F8AA200E4B01221A700D4B0E2282
S2140828501A700A4B1B781A46084B134429229A709A
S214082860094B98470A4BDB8E1A460A4B1A60002318
S214082870184680BD701C072050240720A42907206E
S214082880711C072038270720A5280800E11D072007
S21408289064280720601C0720641C0720681C072083
S2140828A06C1C072080B400AF0A4B1B78002B0CD09A
S2140828B0094B1B780A2B08D8074B01225A70064B7F
S2140828C01B780133DAB2044B1A701846BD465DF819
S2140828D0047B7047711C0720A429072090B482B097
S2140828E000AF0446084611461A462346FB710346BF
S2140828F0BB710B46BB8013467B80FA791449134696
S2140829005B0013449B000B44BA795A70FA79104955
S21408291013465B0013449B000B447A88DA80FA79E6
S2140829200B4913465B0013449B000B44BA889A80F5
S214082930FA79074913465B0013449B000B44083397
S2140829403A7C1A7018460837BD4690BC704700BFD8
S2140829505024072080B485B000AF03460A46FB71B2
S2140829601346BB710023FB73FB793C2B05D0FB7920
S2140829703D2B02D0FB793B2B3DD1BB79002B1DD0DC
S214082980FA79464913465B0013449B000B44083308
S21408299001229A70FA79414913465B0013449B005A
S2140829A00B4402229A70FA793C4913465B0013449A
S2140829B09B000B44083300225A701CE0FA7937490A
S2140829C013465B0013449B000B44083300229A709E
S2140829D0FA79324913465B0013449B000B440422E1
S2140829E09A70FA792D4913465B0013449B000B44F2
S2140829F0083300225A702A4B1B78002B46D0FA79E7
S214082A00264913465B0013449B000B44FA791A7058
S214082A10BB79002B1DD0FA79204913465B00134476
S214082A209B000B44083301229A70FA791B49134617
S214082A305B0013449B000B4402229A70FA791749EC
S214082A4013465B0013449B000B44083300225A705D
S214082A501CE0FA79114913465B0013449B000B44AB
S214082A60083300229A70FA790C4913465B0013441F
S214082A709B000B4404229A70FA79084913465B00B7
S214082A8013449B000B44083300225A70FB7B1846FD
S214082A901437BD465DF8047B704700BF50240720F6
S214082AA00810072080B485B000AF0346FB710023EA
S214082AB0FB73FA79074913465B0013449B000B44E3
S214082AC002229A70FB7B18461437BD465DF8047BD5
S214082AD0704700BF5024072080B485B000AF034677
S214082AE03960FB710023FB73FA79104913465B00C3
S214082AF013449B000B449B78012B09D0FA790B49A9
S214082B0013465B0013449B000B449B78032B03D1AE
S214082B103B6801221A7002E03B6800221A70FB7BB1
S214082B2018461437BD465DF8047B704750240720C6
S214082B3080B582B000AF03460A46FB711346BB71E8
S214082B40FA79394913465B0013449B000B44083353
S214082B509B78002B64D0BB79002B41D0FA79324998
S214082B6013465B0013449B000B4401229A702F4BBC
S214082B701B78FA7991B22D4A0133DB0013440A46D2
S214082B809A80FA79284913465B0013449B000B4445
S214082B9008335B780133D8B2234913465B001344E5
S214082BA09B000B44083302465A70214B01221A70C8
S214082BB0204AFB791370FB793B2B07D11B4B1B78FC
S214082BC01A461A4B134429229A7006E0174B1B78AC
S214082BD01A46164B13442A229A70174B98471FE03A
S214082BE0FA79114913465B0013449B000B449B7803
S214082BF0012B15D1FA790C4913465B0013449B0048
S214082C000B4404229A70FA79074913465B0013446A
S214082C109B000B44083300225A70054B00221A709A
S214082C2018460837BD4680BD50240720A42907202B
S214082C30711C072038270720A528080080B483B011
S214082C4000AF0023FB710F4B1B8801339AB20D4B64
S214082C501A800D4B00221A600C4B1B6801330B4A76
S214082C601360084B1B88142B05D9094B00221A60E1
S214082C70044B00221A8018460C37BD465DF8047BC4
S214082C80704700BF981C0720681C0720641C072094
S214082C906C1C072080B483B000AF78603A4B1B8862
S214082CA01A461346DB001344384A128E1344384A31
S214082CB082FB03129210DB17D31A9AB2324B1A8091
S214082CC0344B1B78032B59D801A252F823F000BFC7
S214082CD0E12C0800192D0800E12C0800472D0800F3
S214082CE0294B1B88322B0AD9274B1B88B3F5FA6F5A
S214082CF005D27B680A221A70264B01221A70224BCC
S214082D001B88B3F5FA6F06D97B680B221A70214B1D
S214082D1003221A7032E031E01B4B1B88B3F5FA6FBA
S214082D2005D97B680B221A701A4B03221A70164BA9
S214082D301B88312B06D87B6809221A70154B02228D
S214082D401A701BE01AE0104B1B88322B0AD90E4B60
S214082D501B88B3F5FA6F05D27B680A221A700D4BEA
S214082D6001221A70084B1B88312B06D87B6809226B
S214082D701A70084B02221A70FFE700BF18460C3775
S214082D80BD465DF8047B70479A1C07206428072018
S214082D90676666669C1C072080B584B000AF03464D
S214082DA0FB710023FB73FB79043B092B3ED801A279
S214082DB052F823F0DD2D08001F2E08002D2E0800DF
S214082DC02D2E08002D2E08002D2E08002D2E08006A
S214082DD0F72D08002D2E08002D2E08000720AE4BD4
S214082DE098470346FB73AD4B1A78AD4B1A70AB4B3E
S214082DF002221A701AE00720A74B98470346FB736F
S214082E00A74B1B781A46A74B9B5C1846A24B9847BD
S214082E100346FB73A24B1A78A04B1A7006E01120E3
S214082E209D4B98479D4B00221A7000BF9B4B1B7802
S214082E30152B00F2EE8201A252F823F01334080094
S214082E4013340800952E0800412F0800313008007A
S214082E506730080083300800E3300800FF300800B9
S214082E602531080041310800773108009331080001
S214082E70F53108007B320800DD3208008B33080085
S214082E8013340800CF33080013340800133408003E
S214082E9013340800FB79013B072B4FD801A252F8E0
S214082EA023F000BFC52E0800CD2E08003D2F0800D1
S214082EB03D2F08003D2F0800ED2E08003D2F080086
S214082EC0152F0800784B01221A7038E0764B1B78CD
S214082ED0002B0AD0714B1A78714B1A706F4B03226D
S214082EE01A70714B00221A7029E028E06F4B0022F6
S214082EF01A800520684B98470346FB73FB7B002B1C
S214082F0007D1664B1A78664B1A70644B10221A70F3
S214082F1015E014E0654B00221A8006205E4B9847A1
S214082F200346FB73FB7B002B07D15C4B1A785C4B84
S214082F301A705A4B12221A7001E000E000BF69E2CC
S214082F40FB79013B072B71D801A252F823F000BF8A
S214082F502D300800712F08002D3008002D3008008D
S214082F602D300800DD2F08002D3008000530080039
S214082F704E4B1B889BB29AB2013292B291B24B4A20
S214082F8011801BB2B42B28DD494B9847474B0022CB
S214082F901A8002204FF46171464B984701204FF47F
S214082FA07071444B984705203B4B98470346FB7384
S214082FB01320414B98470346FB734D203F4B9847D9
S214082FC00346FB73FB7B002B07D1344B1A78344B34
S214082FD01A70324B0C221A7029E028E0334B002274
S214082FE01A8005202C4B98470346FB73FB7B002B67
S214082FF007D12A4B1A782A4B1A70284B10221A70B7
S21408300015E014E0294B00221A800620224B984728
S2140830100346FB73FB7B002B07D1204B1A78204B0B
S2140830201A701E4B12221A7001E000E000BFF1E190
S214083030FB79012B02D0022B04D013E01A4B012295
S2140830401A700FE0184B1B78002B0AD0134B1A780F
S214083050134B1A70114B05221A70134B00221A7064
S214083060FFE700BFD6E1FB79022B04D0032B04D080
S214083070012B04D004E000BFCCE100BFCAE100BFCA
S214083080C8E1FB79012B02D0022B19D028E0064BA9
S21408309001221A7024E000BF3D5909009D1C072034
S2140830A09E1C0720100107209F1C0720A21C072033
S2140830B0215B0900C157090069570900E5B10800F6
S2140830C0924B1B78002B0AD0914B1A78914B1A70AA
S2140830D08F4B07221A708D4B00221A70FFE700BF2D
S2140830E098E1FB79022B04D0032B04D0012B04D0E3
S2140830F004E000BF8EE100BF8CE100BF8AE1FB79E7
S214083100012B02D0022B0BD00BE0814B1A78814B97
S2140831101A707F4B09221A707C4B00221A7000E046
S21408312000BF77E1FB79022B04D0032B04D0012BD8
S21408313004D004E000BF6DE100BF6BE100BF69E1A9
S214083140FB79012B02D0022B04D013E06F4B01222F
S2140831501A700FE06D4B1B78002B0AD06C4B1A7850
S2140831606C4B1A706A4B0B221A70684B00221A7046
S214083170FFE700BF4EE1FB79022B04D0032B04D0F7
S214083180012B04D004E000BF44E100BF42E100BFC9
S21408319040E1FB79002B01D0022B2AE05E4B1B880E
S2140831A09BB29BB201339BB29AB25B4B1A805B4BC5
S2140831B01B881BB2132B11DC584B1B881BB2022B27
S2140831C002D11320564B9847544B1B889BB29BB290
S2140831D001339BB29AB2514B1A8009E04F4B00223A
S2140831E01A804B4B1A784B4B1A70494B0D221A70A3
S2140831F000BF0FE1FB79032B3DD801A252F823F05C
S21408320011320800773208007732080025320800A5
S214083210414B1B889BB29BB201339BB29AB23E4B82
S2140832201A8029E03F4B01221A700023BB603A4BF4
S2140832301B889BB23B811623BB7207F10803372015
S21408324019460422384B98470620384B98470346B9
S214083250FB731320364B9847FB7B002B0AD12C4B6D
S2140832601A782C4B1A702A4B0E221A702A4B0022F8
S2140832701A8001E000E000BFCCE0FB79002B01D00B
S214083280022B2AE0244B1B889BB29BB201339BB2CD
S2140832909AB2214B1A80214B1B881BB2132B11DCC8
S2140832A01E4B1B881BB2022B02D113201C4B9847BF
S2140832B01A4B1B889BB29BB201339BB29AB2174B30
S2140832C01A8009E0154B00221A80114B1A78114B08
S2140832D01A700F4B0F221A7000BF9BE0FB79032B66
S2140832E051D801A252F823F0F932080087330800B3
S2140832F08733080035330800074B1B889BB29BB200
S21408330001339BB29AB2044B1A803DE09F1C0720FB
S2140833109D1C07209E1C0720A41C0720A01C072015
S21408332069570900D91D0720ED7309003D590900A2
S214083330495709003A4B01221A700023BB60394BE3
S2140833401B889BB23B811523BB7207F10803372005
S21408335019460422344B98470520344B98470346B1
S214083360FB731320324B9847FB7B002B0AD1314B5B
S2140833701A78314B1A702B4B00221A802D4B0C22D0
S2140833801A7001E000E000BF44E0FB79042B0BD084
S214083390072B00D01AE00520244B98470346FB73FA
S2140833A0244B11221A7011E00720204B9847034639
S2140833B0FB73204B1A78204B1A701E4B02221A7089
S2140833C013201B4B98470346FB7300BF22E0FB798C
S2140833D0042B0BD0092B00D01AE00620134B984775
S2140833E00346FB73134B13221A7011E007200F4B8A
S2140833F098470346FB730F4B1A780F4B1A70132027
S2140834000B4B98470346FB730A4B02221A7000BF01
S21408341000E000BF002318461037BD4680BD00BF39
S214083420D91D0720A41C0720ED7309003D59090083
S214083430495709009D1C07209E1C072080B584B0AC
S21408344000AF0346FB800023FB6072E03C4AFB6843
S2140834509B0013445B889BB2FA889A420CD1384A80
S214083460FB6832F823309BB21AB2364B10469847A0
S2140834700246354B1A6059E0314AFB689B001344F4
S2140834805B889BB2FA889A4250D9FB6801332C4A6B
S2140834909B0013445B889BB2FA889A4246D2FB6824
S2140834A00133274A9B0013445B889BB21946244A7B
S2140834B0FB689B0013445B889BB2CA1AFB680133FF
S2140834C01F4931F823309BB219B21D48FB6830F803
S2140834D023309BB21BB2CB1A92FBF3F39BB21A466D
S2140834E0920013445B009BB27B81B7F90A30174AF7
S2140834F082FB03129210DB17D31A9BB21AB2F98812
S2140835000F48FB689B0003445B889BB2CB1A03FBFF
S21408351002F20B49FB6831F823309BB21BB21A44FF
S214083520084B104698470246074B1A60FB6801335B
S214083530FB60FB68132B89DD1037BD4680BD00BFD6
S214083540880A072085F30900A827072067666666A5
S21408355080B584B000AF0346FB800023FB6073E0B1
S2140835603C4AFB689B0013445B889BB2FA889A42E5
S2140835700CD1384AFB6832F823309BB21AB2364B65
S214083580104698470246354B1A6060E0314AFB6899
S2140835909B0013445B889BB2FA889A4251D9FB6811
S2140835A001332C4A9B0013445B889BB2FA889A42E4
S2140835B047D2FB680133274A9B0013445B889BB2BB
S2140835C01946244AFB689B0013445B889BB2CA1AB8
S2140835D0FB6801331F4931F823309BB219B21D48E6
S2140835E0FB6830F823309BB21BB2CB1A92FBF3F37E
S2140835F09BB21A46920013445B009BB27B81B7F9D4
S2140836000A30174A82FB03129210DB17D31A9BB2B2
S2140836101AB2F9880F48FB689B0003445B889BB284
S214083620CB1A03FB02F20B49FB6831F823309BB236
S2140836301BB21A44084B104698470246074B1A60B6
S21408364005E0FB680133FB60FB68132B88DD103749
S214083650BD4680BDD80A072085F30900A81C0720A8
S2140836606766666680B584B000AF0346FB800023B5
S214083670FB6073E03C4AFB689B0013445B889BB284
S214083680FA889A420CD1384AFB6832F823309BB243
S2140836901AB2364B104698470246354B1A6060E019
S2140836A0314AFB689B0013445B889BB2FA889A42AF
S2140836B051D9FB6801332C4A9B0013445B889BB2A4
S2140836C0FA889A4247D2FB680133274A9B0013447C
S2140836D05B889BB21946244AFB689B0013445B88A8
S2140836E09BB2CA1AFB6801331F4931F823309BB2D4
S2140836F019B21D48FB6830F823309BB21BB2CB1AB0
S21408370092FBF3F39BB21A46920013445B009BB2FB
S2140837107B81B7F90A30174A82FB03129210DB172F
S214083720D31A9BB21AB2F9880F48FB689B00034469
S2140837305B889BB2CB1A03FB02F20B49FB6831F895
S21408374023309BB21BB21A44084B104698470246D1
S214083750074B1A6005E0FB680133FB60FB68312BFA
S21408376088DD1037BD4680BD280B072085F3090085
S214083770AC1C07206766666680B584B000AF034653
S214083780FB800023FB6073E03C4AFB689B00134405
S2140837905B889BB2FA889A420CD1384AFB6832F8A2
S2140837A023309BB21AB2364B104698470246354B22
S2140837B01A6060E0314AFB689B0013445B889BB242
S2140837C0FA889A4251D9FB6801332C4A9B00134465
S2140837D05B889BB2FA889A4247D2FB680133274A2D
S2140837E09B0013445B889BB21946244AFB689B00DF
S2140837F013445B889BB2CA1AFB6801331F4931F829
S21408380023309BB219B21D48FB6830F823309BB2B0
S2140838101BB2CB1A92FBF3F39BB21A4692001344E0
S2140838205B009BB27B81B7F90A30174A82FB03120A
S2140838309210DB17D31A9BB21AB2F9880F48FB68A6
S2140838409B0003445B889BB2CB1A03FB02F20B492E
S214083850FB6831F823309BB21BB21A44084B10465B
S21408386098470246074B1A6005E0FB680133FB6081
S214083870FB68312B88DD1037BD4680BDF00B07206E
S21408388085F30900B01C07206766666680B584B0B5
S21408389000AF0346FB800023FB6073E03C4AFB68EE
S2140838A09B0013445B889BB2FA889A420CD1384A2C
S2140838B0FB6832F823309BB21AB2364B104698474C
S2140838C00246354B1A6060E0314AFB689B00134499
S2140838D05B889BB2FA889A4251D9FB6801332C4A16
S2140838E09B0013445B889BB2FA889A4247D2FB68CF
S2140838F00133274A9B0013445B889BB21946244A27
S214083900FB689B0013445B889BB2CA1AFB680133AA
S2140839101F4931F823309BB219B21D48FB6830F8AE
S21408392023309BB21BB2CB1A92FBF3F39BB21A4618
S214083930920013445B009BB27B81B7F90A30174AA2
S21408394082FB03129210DB17D31A9BB21AB2F988BD
S2140839500F48FB689B0003445B889BB2CB1A03FBAB
S21408396002F20B49FB6831F823309BB21BB21A44AB
S214083970084B104698470246074B1A6005E0FB6856
S2140839800133FB60FB68312B88DD1037BD4680BDF0
S214083990B80C072085F30900B41C0720676666661E
S2140839A090B587B000AF78607B683B6100237B6189
S2140839B07EE0434A7B6952F83320424B10469847CC
S2140839C00246414B1046396998470346002B0BD0F0
S2140839D03B4A7B69DB0013445A683A4B10469847C3
S2140839E002463A4B1A6060E0354A7B6952F8332043
S2140839F0344B104698470246354B10463969984767
S214083A000346002B51D07B6901332D4A52F83320E8
S214083A102C4B1046984702462E4B10463969984755
S214083A200346002B41D07B690133254A52F83320E0
S214083A3023497B6951F83330D21A7B690133204910
S214083A40DB000B4459681E487B69DB0003445B684F
S214083A50CB1AB2FBF3F21B4B104698470346FB60A3
S214083A60174A7B6952F83320164B10469847024689
S214083A70194B38691146984703461A46174B10469D
S214083A80F968984703461C460D4A7B69DB001344D1
S214083A905A680C4B104698470246114B204611466A
S214083AA0984703461A46094B1A607B6901337B61BF
S214083AB07B69312B7FF77DAF1C37BD4690BD00BFB5
S214083AC0800D07207DF3090055F70900B027072069
S214083AD069F70900A5F7090019F209002DF409008D
S214083AE01DF2090090B587B000AF78600B46FB70F2
S214083AF07B683B61FB78002B40F0A38000237B614A
S214083B0099E0644A7B6952F83320634B104698471D
S214083B100246624B1046396998470346002B11D077
S214083B205C4A7B69DB0013445B68BB60BB685C4A25
S214083B30A2FB03235A09584B104698470246594B8E
S214083B401A607DE0534A7B6952F83320524B104680
S214083B5098470246544B1046396998470346002B47
S214083B6066D07B6901334B4A52F833204A4B1046DD
S214083B70984702464D4B1046396998470346002B2E
S214083B8056D07B690133434A52F8332041497B6952
S214083B9051F83330D31A4FF47A7202FB03F27B697A
S214083BA001333C49DB000B4459683A487B69DB0023
S214083BB003445B68CB1AB2FBF3F2374B10469847C0
S214083BC00346FB60334A7B6952F83320324B104673
S214083BD098470246364B38691146984703461A46B0
S214083BE0344B1046F968984703461A46324B104637
S214083BF03249984703461C46264A7B69DB0013442D
S214083C005A68254B1046984702462D4B20461146C3
S214083C10984703461A46234B1A60224B1A68264BC7
S214083C2010462849984703461A461E4B1A6007E06E
S214083C307B6901337B617B69632B7FF762AF63E146
S214083C4062E1FB78012B40F0BE8000237B61B4E084
S214083C501D4A7B6952F833200F4B10469847024698
S214083C600E4B1046396998470346002B30D0164A43
S214083C707B69DB0013445B68BB60BB68084AA2FB31
S214083C8003235A09044B1046984702460F4B1A60FE
S214083C9098E000BF280107207DF3090055F70900C2
S214083CA01F85EB51B81C072069F70900A5F709001E
S214083CB019F209002DF4090095F5090000007A4468
S214083CC01DF209000000C84248040720BC1C072053
S214083CD08F4A7B6952F833208E4B10469847024627
S214083CE08D4B1046396998470346002B62D07B698E
S214083CF00133874A52F83320864B104698470246C7
S214083D00864B1046396998470346002B52D07B6984
S214083D1001337F4A52F833207D497B6951F83330A6
S214083D20D31A4FF47A7202FB03F27B69013378499F
S214083D30DB000B44596876487B69DB0003445B6804
S214083D40CB1AB2FBF3F2734B104698470346FB6058
S214083D506F4A7B6952F833206E4B104698470246E6
S214083D606F4B38691146984703461A466D4B1046FE
S214083D70F968984703461A466B4B10466B499847AE
S214083D8003461C46624A7B69DB0013445A68614B4B
S214083D90104698470246664B204611469847034603
S214083DA01A46614B10466349984703461A46624BC3
S214083DB01A6007E07B6901337B617B69632B7FF7B9
S214083DC047AFA1E0A0E0FB78022B40F09D800023DF
S214083DD07B6195E0594A7B6952F833204D4B104673
S214083DE098470246564B1046396998470346002BB3
S214083DF011D0524A7B69DB0013445B68BB60BB6822
S214083E00504AA2FB03235A09424B104698470246DB
S214083E104D4B1A6078E0494A7B6952F833203D4B8F
S214083E201046984702463C4B104639699847034661
S214083E30002B62D07B690133404A52F83320354B59
S214083E40104698470246354B104639699847034648
S214083E50002B52D07B690133384A52F83320374951
S214083E607B6951F83330D31A4FF47A7202FB03F2A7
S214083E707B6901333149DB000B4459682F487B695D
S214083E80DB0003445B68CB1AB2FBF3F2214B104607
S214083E9098470346FB60294A7B6952F833201D4B36
S214083EA01046984702461E4B3869114698470346FF
S214083EB01A461C4B1046F968984703461A461A4B8A
S214083EC010461A49984703461C461C4A7B69DB007D
S214083ED013445A680F4B104698470246144B204620
S214083EE01146984703461A460F4B104611499847FD
S214083EF003461A46144B1A6006E07B6901337B6159
S214083F007B69632B7FF766AF1C37BD4690BD00BF45
S214083F10480407207DF3090069F70900A5F709009A
S214083F2019F209002DF4090095F5090000007A44F5
S214083F301DF209000000C842BC1C072068070720BD
S214083F4055F709001F85EB51C01C072080B592B0B5
S214083F5000AF0346FB71042387F84730492387F8E8
S214083F60463007F10C0300221A60043300221A6058
S214083F70043300221A60043300221A600433002235
S214083F801A60043300221A60043300221A600433CD
S214083F9000221A60043300221A60043300221A60D2
S214083FA0043300221A60043300221A600433002205
S214083FB01A800233FB790D2B00F06C830E2B01D090
S214083FC000F02FBCBB4B1B7E002B00F06283B94B66
S214083FD01B79013B202B00F25B8301A252F823F0E9
S214083FE0654008009D4008004941080071410800E6
S214083FF09146080091460800914608009146080038
S2140840009146080091460800914608009146080027
S2140840109146080091460800914608009146080017
S21408402091460800A94108009146080091460800F4
S21408403091460800914608009146080091460800F7
S21408404091460800914608009146080091460800E7
S21408405091460800D540080091460800FD40080033
S21408406025410800162387F8463001233B7307F1DD
S2140840700C030133012019468F4B9847034687F8EF
S214084080473097F8462007F10C03104619460222D7
S2140840908A4B9847034687F84730FAE2162387F88C
S2140840A0463002233B7307F10C03013302201946FE
S2140840B0814B9847034687F8473097F8462007F11C
S2140840C00C031046194602227C4B9847034687F88D
S2140840D04730DEE2162387F8463020233B7300235A
S2140840E07B7397F8462007F10C0310461946022200
S2140840F0724B9847034687F84730CAE2162387F874
S214084100463021233B7300237B7397F8462007F13C
S2140841100C03104619460222684B9847034687F850
S2140841204730B6E2162387F8463023233B7397F8C2
S214084130462007F10C031046194602225F4B9847A3
S214084140034687F84730A4E2162387F84630032349
S2140841503B7300237B7397F8462007F10C03104641
S21408416019460222554B9847034687F8473090E28F
S214084170162387F8463004233B7307F10C030133F4
S214084180042019464C4B9847034687F8473097F85B
S214084190462007F10C03104619460222474B98475B
S2140841A0034687F8473074E2162387F8463012230A
S2140841B03B73404B5B79252B21D83E4B5B797B7351
S2140841C07B7B1A463E4B53F822303B6497F84030C8
S2140841D0BB7397F84130FB7397F842303B7497F8F7
S2140841E043307B7497F8462007F10C0310461946AF
S2140841F00622324B9847034687F8473047E22D4B4E
S2140842005B792D2B00F243822A4B5B797B73294B13
S2140842105B79263B072B00F2398201A252F823F07D
S214084220414208003F4308008D460800C542080082
S214084230B3430800154608009745080025440800BB
S2140842401F4B5B693B6497F84030BB7397F8413067
S214084250FB7397F842303B7497F843307B74184BDF
S2140842609B693B6497F84030BB7497F84130FB7401
S21408427097F842303B7597F843307B75104BDB6AEE
S2140842803B6497F84030BB7597F84130FB7597F854
S21408429042303B7697F843307B7697F8462007F10E
S2140842A00C03104619460E22044B9847034687F817
S2140842B04730ECE168290720895E0900ED7309009C
S2140842C0B02B0720D14BD3F888303B6497F84030A2
S2140842D0BB7397F84130FB7397F842303B7497F8F6
S2140842E043307B74C94BD3F88C303B6497F8403026
S2140842F0BB7497F84130FB7497F842303B7597F8D3
S21408430043307B75C14BD3F8A4303B6497F84030F4
S214084310BB7597F84130FB7597F842303B7697F8AF
S21408432043307B7697F8462007F10C03104619466B
S2140843300E22B74B9847034687F84730A7E1B34B9A
S2140843405B6E3B6497F84030BB7397F84130FB735D
S21408435097F842303B7497F843307B74AB4B1B6E30
S2140843603B6497F84030BB7497F84130FB7497F875
S21408437042303B7597F843307B75A44B9B693B648A
S21408438097F84030BB7597F84130FB7597F8423080
S2140843903B7697F843307B7697F8462007F10C0370
S2140843A0104619460E229A4B9847034687F8473018
S2140843B06DE1964B9B6E3B6497F84030BB7397F85D
S2140843C04130FB7397F842303B7497F843307B7460
S2140843D08E4BDB6E3B6497F84030BB7497F84130E1
S2140843E0FB7497F842303B7597F843307B75C823C3
S2140843F03B6497F84030BB7597F84130FB7597F8E3
S21408440042303B7697F843307B7697F8462007F19C
S2140844100C03104619460E227D4B9847034687F82C
S214084420473034E1794BDB6A3B6497F84030BB731E
S21408443097F84130FB7397F842303B7497F843304F
S2140844407B74724B9B693B6497F84030BB7497F853
S2140844504130FB7497F842303B7597F843307B75CC
S2140844606A4B5B693B6497F84030BB7597F84130F8
S214084470FB7597F842303B7697F843307B76634B6C
S2140844805B6B3B6497F84030BB7697F84130FB7619
S21408449097F842303B7797F843307B775B4B1B6B3C
S2140844A03B6497F84030BB7797F84130FB7797F82E
S2140844B0423087F8203097F8433087F82130534B3E
S2140844C01B6D3B6497F8403087F8223097F84130E8
S2140844D087F8233097F8423087F8243097F8433027
S2140844E087F82530494BDB6D3B6497F8403087F8F2
S2140844F0263097F8413087F8273097F8423087F803
S214084500283097F8433087F82930404B5B6D3B647A
S21408451097F8403087F82A3097F8413087F82B30DC
S21408452097F8423087F82C3097F8433087F82D30C4
S214084530364BDB693B6497F8403087F82E3097F89F
S214084540413087F82F3097F8423087F8303097F8A0
S214084550433087F831302D4B9B6B3B6497F84030DF
S21408456087F8323097F8413087F8333097F842307A
S21408457087F8343097F8433087F8353097F8462070
S21408458007F10C03104619462A22214B9847034682
S21408459087F847307BE01D4B1B6F3B6497F840302D
S2140845A0BB7397F84130FB7397F842303B7497F823
S2140845B043307B74154B5B6F3B6497F84030BB7495
S2140845C097F84130FB7497F842303B7597F84330BC
S2140845D07B754FF4C8733B6497F84030BB7597F803
S2140845E04130FB7597F842303B7697F843307B7638
S2140845F097F8462007F10C03104619460E22044B7E
S2140846009847034687F8473041E000BFB02B07209D
S214084610ED730900854BD3F890303B6497F840302B
S214084620BB7397F84130FB7397F842303B7497F8A2
S21408463043307B747D4BD3F894303B6497F8403016
S214084640BB7497F84130FB7497F842303B7597F87F
S21408465043307B754FF4FA733B6497F84030BB756C
S21408466097F84130FB7597F842303B7697F8433019
S2140846707B7697F8462007F10C03104619460E225B
S2140846806B4B9847034687F8473000E000BF00E0CA
S21408469000BFC6E0674B1B7E002B00F0C180654B51
S2140846A01B79122B00D0BBE0624B5B79252B18D800
S2140846B0604B5B797B735F4B9B7987F840305D4B2B
S2140846C0DB7987F841305B4B1B7A87F84230594BC9
S2140846D05B7A87F843307B7B19463B6C534A42F833
S2140846E02130544B5B79053B202B00F2978001A2C2
S2140846F052F823F01D4808001D4808001D48080009
S2140847001D4808001D4808001D4808001D480800E8
S2140847101D4808001D4808001D4808001D480800D8
S2140847201D4808001D4808001D4808001D480800C8
S2140847301D4808001D4808001D4808001D480800B8
S2140847407947080091470800A9470800B9470800B4
S214084750C9470800D94708001D4808001D48080032
S2140847601D4808001D480800E9470800F3470800E8
S214084770FD4708000D4808003B6C2F4AA2FB0323A0
S214084780DA082E4B1046984702462D4B9A6446E0A8
S2140847903B6C294AA2FB0323DA08284B10469847A5
S2140847A00246274BDA643AE03A6C244B10469847A0
S2140847B00246234B5A6332E03A6C204B1046984721
S2140847C002461F4B1A632AE03A6C1C4B1046984761
S2140847D002461B4B5A6122E03A6C184B1046984723
S2140847E00246174B1A611AE03B6C9AB2144B1A80B1
S2140847F015E03B6C9AB2124B5A8010E03A6C0F4B9D
S2140848001046984702460E4BDA6008E03A6C0B4BA7
S2140848101046984702460A4B9A6000E000BF00BF61
S21408482000BF18464837BD4680BD00BFB02B0720DE
S214084830ED73090068290720CDCCCCCC7DF30900A0
S2140848403C27072080B400AF00231846BD465DF815
S214084850047B704780B58EB000AF0346FB7100231B
S21408486087F82E30002387F82D30002387F8353058
S214084870002387F82C30002387F82B3000237B860C
S21408488000233B6200237B62492387F831300023EC
S21408489087F830300023FB86FA7907F12E03104696
S2140848A01946B44B9847034687F82F3097F82E30AA
S2140848B00F2B09D0112B00D007E00220AE4B9847EB
S2140848C0034687F82F3000E000BF97F82E30112BEC
S2140848D015D10C20A94B9847034687F82F300E2091
S2140848E0A64B9847034687F82F300D20A34B9847CA
S2140848F0034687F82F30A24B1A78A24B1A70A04BA3
S2140849001B780A2B00F2918601A252F823F000BF0A
S2140849103D4908002B560800694B0800CB4B080099
S214084920774C0800534C080075530800F3500800ED
S214084930D15008000F510800A951080097F82E30EA
S214084940013B132B00F20D8101A252F823F000BFA1
S214084950A1490800EF490800514B0800634B0800BE
S214084960634B0800634B0800634B0800634B080062
S214084970634B0800634B0800634B0800634B080052
S214084980634B0800634B0800634B0800634B080042
S214084990634B0800634B0800634B0800574B08003E
S2140849A0794B1B7E002B21D0774B1B79042B00D02C
S2140849B01CE0162387F83130042387F8203007F1E7
S2140849C02003013304201946704B9847034687F89E
S2140849D02F3097F8312007F1200310461946022297
S2140849E06B4B9847034687F82F3000BFBAE0664BF4
S2140849F01B7E002B00F0AB80634B5B793B77624BEA
S214084A009B797B77604BDB79BB775F4B1B7AFB77B1
S214084A105D4B1B79053B202B00F2988001A252F8CB
S214084A2023F000BF4D4B08004D4B08004D4B0800C7
S214084A304D4B08004D4B08004D4B08004D4B0800E9
S214084A404D4B08004D4B08004D4B08004D4B0800D9
S214084A504D4B08004D4B08004D4B08004D4B0800C9
S214084A604D4B08004D4B08004D4B08004D4B0800B9
S214084A70A94A0800C14A0800D94A0800E94A0800B5
S214084A80F94A0800094B08004D4B08004D4B080032
S214084A904D4B08004D4B0800194B0800234B0800E7
S214084AA02D4B08003D4B0800FB693A4AA2FB03233E
S214084AB0DA08394B104698470246384B9A6446E05F
S214084AC0FB69344AA2FB0323DA08334B104698479F
S214084AD00246324BDA643AE0FA692F4B104698479A
S214084AE002462E4B5A6332E0FA692B4B104698471B
S214084AF002462A4B1A632AE0FA69274B104698475B
S214084B000246264B5A6122E0FA69234B104698471C
S214084B100246224B1A611AE0FB699AB21F4B1A80AA
S214084B2015E0FB699AB21D4B5A8010E0FA691A4BD9
S214084B30104698470246194BDA6008E0FA69164BA1
S214084B40104698470246154B9A6000E000BF09E0F9
S214084B50134B984706E0134B9847034687F82F30C1
S214084B6000E000BF00F061BD97F82E30102B1BD078
S214084B7029E000BF69660800992D0800A52A0800E4
S214084B80C41C0720AA2B072068290720895E09006D
S214084B90ED730900CDCCCCCC7DF309003C2707206B
S214084BA091770800A96E0800B848B94B98470023C3
S214084BB07B8307F11A0307201946B64B9847B64B6E
S214084BC003221A7000BF00F030BD97F82E30102B65
S214084BD000D03CE000233B8307F118030A2019465F
S214084BE0AC4B98473B8B002B30D11820AB4908229A
S214084BF0AB4B98470A204FF47A71AA4B9847AA4BB2
S214084C00984702200021A94B9847012042F21071CC
S214084C10A64B9847C820A64B9847012041F28831F2
S214084C20A24B9847C820A24B9847012040F6AC51A3
S214084C309E4B9847C8209E4B9847012040F6C411C3
S214084C409A4B9847944B05221A70FFE700BF00F06E
S214084C50ECBC97F82E30112B00D00AE0954B9847FD
S214084C60012040F6C411914B98478B4B04221A70CA
S214084C7000BF00F0DABC97F82E30013B192B00F283
S214084C80D38401A252F823F0F14C08003F4D0800E7
S214084C90295608007D500800835008008F500800E9
S214084CA09550080029560800295608002956080075
S214084CB029560800295608002956080029560800CB
S214084CC0CD500800CD500800E14E080029560800CF
S214084CD0295608009B500800A750080029560800C7
S214084CE02956080029560800CD500800CD5008005F
S214084CF0714B1B7E002B21D06F4B1B79042B00D0E9
S214084D001CE0162387F83130042387F8203007F193
S214084D102003013304201946684B9847034687F852
S214084D202F3097F8312007F1200310461946022243
S214084D305B4B9847034687F82F3000BFC7E15E4BAA
S214084D401B7E002B00F0CB805B4B5B793B755A4B88
S214084D509B797B75584BDB79BB75574B1B7AFB7574
S214084D60554B1B79053B202B00F2B88001A252F860
S214084D7023F000BFDD4E0800DD4E0800DD4E0800BB
S214084D80DD4E0800DD4E0800DD4E0800DD4E08004A
S214084D90DD4E0800DD4E0800DD4E0800DD4E08003A
S214084DA0DD4E0800DD4E0800DD4E0800DD4E08002A
S214084DB0DD4E0800DD4E0800DD4E0800DD4E08001A
S214084DC0F94D0800114E0800294E0800394E080013
S214084DD0494E0800594E0800DD4E0800DD4E080012
S214084DE0DD4E0800DD4E0800694E0800734E0800C8
S214084DF07D4E0800CD4E08007B69314AA2FB03238E
S214084E00DA08304B1046984702462F4B9A6466E0FD
S214084E107B692B4AA2FB0323DA082A4B10469847DD
S214084E200246294BDA645AE07A69264B10469847B8
S214084E300246254B5A6352E07A69224B1046984739
S214084E400246214B1A634AE07A691E4B1046984779
S214084E5002461D4B5A6142E07A691A4B104698473B
S214084E600246194B1A613AE07B699AB2164B1A80C9
S214084E7035E07B699AB2144B5A8030E07A69114B58
S214084E80104698470246104BDA6028E0C61C0720F2
S214084E902189080019CA0800C41C07206C280A00C3
S214084EA0ED730900F913090021590900191E0900B4
S214084EB0A90D0900F16E080068290720895E090017
S214084EC0CDCCCCCC7DF309003C2707207A69944BDF
S214084ED0104698470246934B9A6000E000BFF6E0FB
S214084EE0914B984706200021904B98470D200021AB
S214084EF08F4B98478F4B98478F4B1B780133DAB206
S214084F008D4B1A708C4B1B781E2B0BD18B4B1B783A
S214084F10DBB2012B06D140F2A460894B9847874B39
S214084F2000221A70844B1B783C2B40F08380854BFC
S214084F309847034687F82F307F4B00221A707E4B1F
S214084F405B780133DAB27C4B5A707B4B5B78032B69
S214084F5006D14FF4FA607A4B9847784B00221A70BD
S214084F60754B5B78012B5FD100237B8200233B8245
S214084F700023FB81744B1A68744B10469847034607
S214084F809BB27B82182072490422724B984707F11D
S214084F9012031920194602226E4B98476A4B1A6864
S214084FA06D4B10466D49984703461A465D4B9A6006
S214084FB0654B1A686A4B10466849984703461A466E
S214084FC0584BDA60574BDA68604B104698470346EA
S214084FD09BB23B82534B9A685C4B104698470346F5
S214084FE09BB2FB8107F11003192019460222594B80
S214084FF0984707F10E03192019460222554B984781
S214085000584B1A68544B10465449984703461A4654
S214085010444B1A61534B1A68514B10464F499847F0
S21408502003461A463F4B5A61434BDB780133DAB2E4
S214085030414BDA704C4B98470346002B1DD1032092
S2140850404A4B98474A4B9847034687F82F30494BB0
S21408505098470320484B98471120484B9847484B99
S214085060984704200021314B98470C200021304BEC
S2140850709847444B06221A7029E028E0424B984786
S21408508025E0424B98473F4B07221A701FE0404BDB
S21408509098471CE03F4B984719E03F4B9847034614
S2140850A087F82F3013E007F12D033B2019463B4BBA
S2140850B0984707F12C0311201946384B984707F1F3
S2140850C02B030E201946354B984700E000BFABE28D
S2140850D097F82E30072B08D0142B00D008E02E4B5C
S2140850E09847034687F82F3002E02A4B984700BFB8
S2140850F09BE297F82E30032B02D0042B03D005E052
S214085100274B984702E0204B984700BF8DE297F858
S2140851102E30032B00D002E0224B984700BF84E2D3
S2140851207DF309003C270720F16E0800191E0900C8
S214085130F913090059700800BC270720100F07202C
S214085140455B0900E1670800880A072005F809009A
S21408515078280A00ED7309001DF20900000048428D
S21408516019F20900741C072065680800E55609004E
S2140851708D68080035570900F98B08003D59090065
S214085180D16E0800C41C0720F56C0800556E080090
S2140851909D6D0800F96D0800A96E0800D92A080058
S2140851A0D17708009177080097F82E30013B172B27
S2140851B000F2DE8001A252F823F000BF2352080056
S2140851C0715308001D5208007153080071530800F7
S2140851D07153080071530800715308007153080092
S2140851E07153080071530800715308007153080082
S2140851F07153080071530800715308007152080073
S214085200715308007153080065530800715308006D
S214085210715308007153080071530800954B98475E
S214085220A7E0954B1B7E002B21D0934B1B79042BB4
S21408523000D01CE0162387F83130042387F8203086
S21408524007F120030133042019468C4B9847034680
S21408525087F82F3097F8312007F1200310461946B3
S2140852600222874B9847034687F82F3000BF80E016
S2140852700023FB8672E0FA8E82491346DB009B1AEF
S2140852800B441978FA8E1346DB009B1A7D4A1344A2
S2140852900233084619467C4B9847FA8E79491346D6
S2140852A0DB009B1A0B449B78002B1FD018207749ED
S2140852B00822734B9847FA8E72491346DB009B1AEE
S2140852C00B441A78724B1A70714B1B781846714B40
S2140852D098476F4B1A78704B1A70704B01221A70E9
S2140852E06F4B0A221A700023FB863AE06B4B1B783A
S2140852F0DBB2012B0CD118206A490822604B98476C
S214085300654B1B781846634B9847644B00221A7007
S214085310FB8E172B1FD1FA8E5A491346DB009B1AB1
S2140853200B449B7883F00103DBB2002B13D01820C4
S2140853305D490822524B98475C4B98475C4B984708
S2140853405C4B9847022000215B4B98475B4B98477D
S214085350534B04221A70FB8E0133FB86FB8E172BE9
S21408536089D906E0564B9847034687F82F3000E061
S21408537000BF5AE197F82E30013B172B00F25281F6
S21408538001A252F823F000BFE9530800C5540800EC
S21408539025560800255608002556080025560800F4
S2140853A025560800255608002556080025560800E4
S2140853B025560800255608002556080025560800D4
S2140853C025560800255608002556080025560800C4
S2140853D025560800255608002556080025560800B4
S2140853E02556080025560800234B1B7E002B40D068
S2140853F0214B1B79042B02D0212B1DD039E0162314
S21408540087F83130022387F8203007F1200301336C
S21408541004201946194B9847034687F82F3097F803
S214085420312007F12003104619460222144B9847EC
S214085430034687F82F301CE0162387F831302323DD
S21408544087F8203007F120030133042019460B4B58
S2140854509847034687F82F3097F8312007F120033E
S214085460104619460222064B9847034687F82F30FF
S21408547000BFD8E0D177080068290720895E0900B0
S214085480ED730900140F0720D92A08007C280A00A3
S214085490C127072049560800B6270720EC1C072016
S2140854A0C41C072084280A0090280A00E15909002D
S2140854B0F5590900095A0900310E090099580900DA
S2140854C0A96E08005B4B1B7E002B00F0AA80594B88
S2140854D05B793B72574B9B797B72564BDB79BB7279
S2140854E0544B1B7AFB72534B1B79053B202B00F25F
S2140854F0978001A252F823F021560800215608008A
S2140855002156080021560800215608002156080092
S2140855102156080021560800215608002156080082
S2140855202156080021560800215608002156080072
S2140855302156080021560800215608002156080062
S214085540215608007D55080095550800AD550800F9
S214085550BD550800CD550800DD5508002156080041
S214085560215608002156080021560800ED55080067
S214085570F75508000156080011560800BB682E4A61
S214085580A2FB0323DA082D4B1046984702462C4BFD
S2140855909A6446E0BB68284AA2FB0323DA08274B2E
S2140855A0104698470246264BDA643AE0BA68234B18
S2140855B0104698470246224B5A6332E0BA681F4B99
S2140855C01046984702461E4B1A632AE0BA681B4BD9
S2140855D01046984702461A4B5A6122E0BA68174B9B
S2140855E0104698470246164B1A611AE0BB689AB2EC
S2140855F0134B1A8015E0BB689AB2114B5A8010E01C
S214085600BA680E4B1046984702460D4BDA6008E01B
S214085610BA680A4B104698470246094B9A6000E05B
S21408562000BF00E000BF00E000BF00231846383780
S214085630BD4680BD68290720CDCCCCCC7DF30900BB
S2140856403C270720000000002DE990438FB000AFEC
S2140856500346FB71FB79013B282B00F2D88701A291
S21408566052F823F0095708000F6608000F6608006E
S2140856700F660800335708007B570800295A0800A9
S2140856805B5808000F6608000F6608000F660800DB
S2140856900F6608000F6608000F660800E964080031
S2140856A07765080089630800176408006D620800BB
S2140856B0FB620800675B0800015C0800295D0800BB
S2140856C0C35D08000F6608000F6608000F6608002E
S2140856D00F6608000F6608000F6608000F660800C9
S2140856E0DF570800A55708000F6608001D58080071
S2140856F063600800CD5F08008F610800F960080045
S214085700595E0800EF5E080007F1330301201946CA
S214085710A34B984797F83330012B03D1A14B9847F2
S21408572000F075BFA04B9847A04B0A221A7000F0ED
S2140857306EBF18209E4908229E4B984707F13203F1
S21408574003201946964B984797F83230002B08D115
S214085750182099490822974B9847984B984700F085
S21408576056BF182096490822924B9847954B98475B
S2140857708E4B0A221A7000F04ABF07F13203042043
S2140857801946874B984797F83230002B03D18B4B36
S214085790984700F03CBF8B4B9847844B0A221A70F8
S2140857A000F035BF182084490822824B984707F135
S2140857B033030A2019467A4B984797F83330002B5C
S2140857C006D1814B9847794B04221A7000F01FBF08
S2140857D07E4B9847754B0A221A7000F018BF18209F
S2140857E075490822734B984707F133030920194671
S2140857F06B4B984797F83330002B03D1694B984783
S21408580000F005BF18206E4908226A4B9847664B79
S2140858109847664B0A221A7000F0F9BE18206649A7
S2140858200822644B984707F133030D2019465C4B52
S214085830984797F83330002B03D15A4B984700F017
S214085840E6BE18205E4908225A4B9847564B98479A
S214085850564B0A221A7000F0DABE1820564908225B
S214085860544B98475A4BDB8D1A4640F6E44303FBE5
S21408587002F3002B01DA03F6FF731B131A46554B87
S2140858801046984703467B63786B534B9847504BB4
S2140858905B8D1A4640F6E44303FB02F3002B01DA5D
S2140858A003F6FF731B131A464A4B104698470346DF
S2140858B07B63786B0221494B9847494B1A68494BDA
S2140858C01046984780468946474B1A68454B104607
