:0200000280007C
:1000000060480720394009003140090031400900AB
:100010003140090031400900314009000000000072
:100020000000000000000000000000003140090056
:10003000314009000000000031400900E1FA0800E9
:1000400031400900314009003140090031400900C8
:1000500031400900314009003140090031400900B8
:1000600031FA080031400900000000006138090041
:100070007938090091380900A9380900000000000A
:100080000000000031400900314009003140090002
:100090003140090031400900314009003140090078
:1000A0003140090000000000314009006DFA0800ED
:1000B000AD4E090031400900C1FA08003140090085
:1000C00031400900A1FA080031400900314009001F
:1000D0003140090031400900314009003140090038
:1000E0003140090031400900314009003140090028
:1000F0003140090010B5054C237833B9044B13B1D6
:100100000448AFF300800123237010BD5419072069
:1001100000000000DCF90900084B10B51BB10848CD
:100120000849AFF300800848036803B910BD074BC6
:10013000002BFBD0BDE81040184700BF00000000B6
:10014000DCF9090058190720DCF90900000000005B
:1001500080B582B000AF78607B68072B30D801A2F1
:1001600052F823F0C1010800850108008D01080044
:10017000950108009D010800A5010800AD010800D7
:10018000B70108000020104B984719E001200E4BE2
:10019000984715E000200D4B984711E010200B4BBD
:1001A00098470DE02020094B984709E000203E21A8
:1001B000074B984704E001203E21054B984700BFBC
:1001C0000837BD4680BD00BF45390900B139090077
:1001D000513A090080B582B000AF78607B68072B88
:1001E00026D801A252F823F0090208000D020800E7
:1001F0000D0208001F0208001F0208001F0208006D
:100200001F0208001F020800012312E00B4B984751
:100210000346002B14BF01230023DBB209E0084B87
:1002200098470346002B14BF01230023DBB200E0F4
:10023000002318460837BD4680BD00BF7D39090040
:10024000C93A090080B483B000AF78607B68072B9F
:1002500025D801A252F823F0790208007F02080095
:10026000850208008B0208008F0208009302080034
:10027000970208009B0208004FF4FA4310E04FF485
:1002800000430DE04FF400430AE0084B08E0084B40
:1002900006E0084B04E0074B02E0064B00E00023B9
:1002A00018460C37BD465DF8047B704700093D00D9
:1002B00000127A00001BB70080B582B000AF034681
:1002C000FB7100BFFB791846054B9847034683F046
:1002D0000103DBB2002BF5D10837BD4680BD00BF5E
:1002E000D501080080B586B000AFF8607A603B6049
:1002F0000B46FB727B68002B07D13B68002B04D1B7
:10030000FB684FF470021A6019E0FB7A18460D4B37
:10031000984702467B68B2FBF3F37B617B693A68DE
:1003200002FB03F37B613B68013B1A04064B13405D
:100330007A68D2B2134343F47C52FB681A601837D0
:10034000BD4680BD450208000000FF0780B582B0B1
:1003500000AF786039603B68002B08D1084B9847A4
:10036000084A7B681B6843F00053936205E0054A26
:100370007B681B6843F48033D3610837BD4680BD7A
:10038000E53A090000060E4080B582B000AF786003
:100390007B68002B03D1054B9847034602E0044BD2
:1003A0009847034618460837BD4680BDFD3A090008
:1003B000193B090080B582B000AF0346FB71FB79A1
:1003C000033B042B08D8FB791846054B9847FB796B
:1003D0001846044B984700E000BF0837BD4680BD73
:1003E00051010800B902080080B582B000AF786002
:1003F00000BF7868044B98470346002BF9D00023D0
:1004000018460837BD4680BD8903080080B500AF97
:100410000620044B984702461346DB009B1A5B00FC
:10042000184680BD4502080080B500AF024B9847D2
:1004300003465B08184680BD0D04080090B583B0E4
:1004400000AF104B9847034618460F4B98470620BD
:100450000E4B98473B1D1846062101220E230C4CDB
:10046000A0473B1D184600210A4B984700200A4B25
:1004700098471020094B9847094B98470C37BD46C1
:1004800090BD00BF2904080061420900B5030800BF
:10049000E50208004D030800E9030800C13809001F
:1004A000E140090080B584B000AFF860B9607A60BF
:1004B0007B681B0203F47062BB681343F86819463B
:1004C000034B9847002318461037BD4680BD00BF38
:1004D000B900072080B584B000AF786039607B68D0
:1004E0001B6823F47063FB603B681B0203F47062BB
:1004F000FB68134378681946024B98471037BD468E
:1005000080BD00BFB900072080B483B000AF786021
:100510007B681B6803F470631B0A18460C37BD46E2
:100520005DF8047B704700BF80B586B000AFF8600F
:10053000B9607A60BB680E2B02D0BB680F2B02D16A
:100540004FF0FF3320E0FB68114A934214BF0123B0
:100550000023DBB27B610F4B1B681A460E4B1A60FF
:100560000D4B1A687B681B0223F07F4323F0FF03C7
:10057000B968C9B20B4343F0B44378691946904750
:10058000FB689B6803F0060318461837BD4680BD1C
:10059000000A0E40080010007019072080B483B0D4
:1005A00000AF78607B68DB6818460C37BD465DF8A5
:1005B000047B704780B483B000AF78607B6808220A
:1005C0001A607B6820221A607B6804221A600C374C
:1005D000BD465DF8047B704780B584B000AF78609D
:1005E00039600023FB607B684FF0FF329A627B68C2
:1005F0001B6A78680F4B984778680F4B98473B68A1
:100600005A683B681B68786811461A460B4B984736
:100610000346012B01D10123FB603B685B7A012B70
:1006200002D17B6840221A60FB6818461037BD462D
:1006300080BD00BFBD060800B505080041060800E2
:1006400080B487B000AFF860B9607A6000237B6146
:10065000BB68184A934201D9012324E0BB685B00C0
:100660007A68B2FBF3F3043B3B6105E07B6901333D
:100670007B613B695B083B613B69FF2B02D97B696E
:10068000062BF3D90C4A3B6913603B69DAB23B692C
:100690001B029BB21A437B691B0403F4E0231A4339
:1006A000FB681A61002318461C37BD465DF8047BC1
:1006B000704700BF801A06007419072080B483B009
:1006C00000AF78607B6880221A607B681B6B0C37F8
:1006D000BD465DF8047B704780B487B000AFF8601A
:1006E000B9607A603B60BB68B3F5402F0BD3174B02
:1006F0007B61BB68A3F540231B0A7B82BB689BB26E
:10070000DBB23B820AE0124B7B61BB68A3F500239E
:100710001B0A7B82BB689BB2DBB23B82FB68002B6F
:1007200002D0FB687A691A607B68002B02D07B6874
:100730007A8A1A803B68002B02D03B683A8A1A807A
:100740001C37BD465DF8047B704700BF000C0E40AF
:10075000000A0E4080B487B000AFF8607B600B46A3
:100760007B8113463B81FB680D4A934206D17B890E
:1007700003F500631A023B89134405E07B8903F506
:1007800040631A023B8913447B617B68002B02D0D3
:100790007B687A691A601C37BD465DF8047B704738
:1007A000000A0E4080B487B000AFF860B9607A608C
:1007B0003B60FB6823F47F5323F03F037B61BB68FE
:1007C00023F47F5323F03F0303F57F533F333B6113
:1007D0007B68002B02D07B687A691A603B68002B2B
:1007E00002D03B683A691A601C37BD465DF8047B4D
:1007F000704700BF80B582B000AF786039600748AD
:1008000079683A68064B9847064879683A68044B15
:100810009847002318460837BD4680BD000A0E40A1
:10082000A5040800000C0E4090B58FB000AFF86032
:10083000B9607A603B604D4BBB6207F1180107F16C
:10084000160207F114030846F968494CA047BB6932
:100850001846484B98477862BB6918460621464BB4
:10086000984776E0BB8AC3F580727B68934228BFC5
:1008700013463B62B969FA8A07F11003084611462C
:1008800000223E4CA047BB8A5B429AB23B6A9BB2B5
:10089000D31A9BB203F58073FB833B691A46BB8A6C
:1008A000B86A11461A46364B9847BB8A1A46BB6A45
:1008B00013441846B9683A6A314B9847BB8A1A46BE
:1008C0003B6A1344BA6AD118BB8A1A463B691A4478
:1008D0003B6A13441A46FB8B084611461A46284BBE
:1008E00098473B69FB6200233B630AE0FB6A1A1DE1
:1008F000FA621E493A6B51F822201A603B6B0133B1
:100900003B633B6B3F2BF1D93B68002B07D0BB69A6
:10091000FA8A184603211B4B9847786306E0BB69A7
:10092000FA8A18460121174B984778637B6B002B96
:1009300001D07B6B16E0BA683B6A1344BB607A68EF
:100940003B6AD31A7B60FB8A01339BB2FB82002394
:10095000BB827B68002B85D1BB691846796A064B40
:100960009847002318463C37BD4690BD78190720AC
:10097000D906080009050800D50408005507080035
:1009800005C409002905080090B58BB000AFF860D8
:10099000B9607A603B604023FB8407F1180207F1DD
:1009A0001403F868B9681E4CA0477B68002B02D07E
:1009B000BA697B681A603B68002B02D07A693B6891
:1009C0001A60BA6907F11C0107F1120308461146C3
:1009D0001A460023134CA0477A6907F11003002040
:1009E00011461A4600230F4CA04710E0FB697A8A93
:1009F000184608210C4B984738623B6A002B01D0FF
:100A00003B6A09E07A8AFB8C13449BB27B827A8A28
:100A10003B8A9A42EAD3002318462C37BD4690BD44
:100A2000A5070800D90608002905080090B58BB075
:100A300000AFF860B9607A603B604023FB8407F147
:100A4000180207F11403F868B9681E4CA0477B68C8
:100A5000002B02D0BA697B681A603B68002B02D079
:100A60007A693B681A60BA6907F11C0107F1120341
:100A7000084611461A460023134CA0477A6907F12D
:100A80001003002011461A4600230F4CA04710E027
:100A9000FB697A8A184609210C4B984738623B6AF1
:100AA000002B01D03B6A09E07A8AFB8C13449BB28D
:100AB0007B827A8A3B8A9A42EAD3002318462C37F3
:100AC000BD4690BDA5070800D90608002905080005
:100AD00080B582B000AF78607B68022B01D911230A
:100AE00012E078680A4B98470346012B01D1002396
:100AF0000AE008480B217A68074B98470346002B09
:100B000001D1002300E0102318460837BD4680BD00
:100B10001D0B0800000A0E402905080080B584B0AE
:100B200000AF78607B68022B01D9112319E00F48D0
:100B30000D2100220E4B98470346002B01D01023B5
:100B40000FE00A480B4B9847F8607B68012202FAD5
:100B500003F31A46FB681340002B01D0012300E089
:100B6000002318461037BD4680BD00BF000A0E4066
:100B7000290508009D05080080B500AF0020024B44
:100B800098470346184680BDD10A080080B500AFDB
:100B9000034B9847034B9847034B9847184680BD33
:100BA000AD0B080045BF080041BD080080B400AF90
:100BB0003C4B00221A803B4B42F210725A80394B58
:100BC00000229A80374B42F21072DA80354B364A57
:100BD0009A60344B354ADA60324B334A1A61314BF2
:100BE000324A5A612F4B324A9A612E4B2F4ADA61B0
:100BF0002C4B2F4A1A622B4B2C4A5A62294B2C4AF7
:100C00009A62284B294ADA62264B2A4A9A63254B74
:100C1000294ADA63234B294A1A64224B264A5A642A
:100C2000204B274A9A641F4B264ADA641D4B264AFA
:100C30001A651C4B42F21072A3F85420194B002283
:100C4000A3F85620174B42F21072A3F85820154B08
:100C50000022A3F85A20134B42F21072A3F85C2032
:100C6000104B0022A3F85E200E4B0522A3F8602053
:100C70000C4B1422A3F862200A4B1E22A3F8642016
:100C8000084B0522A3F86620064B1E22A3F8682015
:100C9000044B0522A3F86A201846BD465DF8047B84
:100CA000704700BF0C2307200000FA43000096C3E2
:100CB0000080BB44000020420000A040000024420D
:100CC00000001842000040400000344200000000D4
:100CD00090B583B000AF964B1B8C1A4640F6E443A8
:100CE00003FB02F3002B01DA03F6FF731B131A4612
:100CF000904B1046984703467B608F4B7868984727
:100D000003469BB218468D4B98478D4B1B889BB270
:100D10001AB2884B1046984702468A4B1A60844B99
:100D20005B8C1A4640F6E44303FB02F3002B01DA26
:100D300003F6FF731B131A467E4B10469847034673
:100D40007B607D4B7868984703469BB218467E4B84
:100D500098477E4B1A687E4B10467E49984703465B
:100D60001C467D4B1B889BB21AB2724B10469847AB
:100D700002467A4B20461146984703461A46784B5E
:100D800010467849984703461A46704B1A60684BDC
:100D90009B8C1A4640F6E44303FB02F3002B01DA76
:100DA00003F6FF731B131A46624B1046984703461F
:100DB0007B60614B7868984703469BB218466A4B44
:100DC00098476A4B1B889BB21AB25A4B10469847F9
:100DD0000246674B1A60564BDB891A4640F6E443DD
:100DE00003FB02F3002B01DA03F6FF731B131A4611
:100DF000504B1046984703467B604F4B78689847A6
:100E000003469BB218465B4B98475B4B1B889BB2D3
:100E10001AB2484B104698470246584B1A60444B4A
:100E20001B8A1A4640F6E44303FB02F3002B01DA67
:100E300003F6FF731B131A463E4B104698470346B2
:100E40007B603D4B7868984703469BB218464C4BF5
:100E500098474C4B1B889BB21AB2364B10469847AA
:100E60000246494B1A60324BDB8C1A46474B104600
:100E7000984702460B46464C104619462AA3D3E92A
:100E80000023A04702460B4610461946414B98479F
:100E900003467B60786800213F4B98473F4B1B68B7
:100EA0003F4A1360224B1B8D1A46384B1046984719
:100EB00002460B46364C104619461BA3D3E90023C5
:100EC000A04702460B4610461946324B9847034648
:100ED0007B6078680121304B9847324B1B68324A5F
:100EE0001360134B5B8D1A46284B104698470246F9
:100EF0000B46274C104619460BA3D3E90023A04705
:100F000002460B4610461946224B984703467B6023
:100F100078680221204B9847244B1B68244A1360B1
:100F200018460C37BD4690BDC3F5285C8FC2E93F1B
:100F30003C240720CDBE09004DC3090069300800DC
:100F40007A230720901A072075310800941A072089
:100F500075BF0900000044428623072065BD0900D3
:100F6000DDC00900000048428132080088230720C4
:100F7000981A0720612F080078230720880A072085
:100F80008D330800842307208C1A072029B6090016
:100F9000F5B60900B9BC090099340800BC1A07204D
:100FA0009C1A0720C01A0720A01A0720C41A07207D
:100FB000A41A072090B583B000AFA94B9847A94B5E
:100FC00093F88A31002B26D0A74BDB8A002B22D046
:100FD000A44B012283F88221A44B1B78A34A01333E
:100FE000DB00134420229A809E4B93F88931013311
:100FF000DAB29C4B83F889219D4B01221A709D4BDC
:1010000020221A70994B1B781A46984B13442522BC
:101010009A70994B9847934B93F89631002B26D0B2
:10102000914B1B8B002B22D08E4B012283F88E21FB
:101030008E4B1B788D4A0133DB00134421229A80AA
:10104000884B93F895310133DAB2864B83F89521BA
:10105000874B01221A70874B21221A70834B1B7811
:101060001A46824B134425229A70834B98477D4B36
:1010700093F8AE31002B26D07B4B1B8F002B22D058
:10108000784B012283F8A621784B1B78774A0133ED
:10109000DB00134423229A80724B93F8AD31013365
:1010A000DAB2704B83F8AD21714B01221A70714B8B
:1010B00023221A706D4B1B781A466C4B1344252261
:1010C0009A706D4B9847674B93F8C631002B2DD023
:1010D0006A4B99686A4B1A686A4B084611469847EA
:1010E0000346002B22D05F4B012283F8BE215F4BC9
:1010F0001B785E4A0133DB00134425229A80594B4A
:1011000093F8C5310133DAB2564B83F8C521584BF9
:1011100001221A70574B25221A70544B1B781A461D
:10112000524B134425229A70534B98474D4B93F8DA
:10113000DE31002B2DD0514B1969534B1A68514B9E
:101140000846114698470346002B22D0454B012202
:1011500083F8D621454B1B78444A0133DB00134406
:1011600027229A803F4B93F8DD310133DAB23D4BB1
:1011700083F8DD213E4B01221A703E4B27221A7064
:101180003A4B1B781A46394B134425229A703A4B36
:101190009847344B93F8D231002B2DD0374B5969F7
:1011A000394B1A68394B0846114698470346002BBD
:1011B00022D02C4B012283F8CA212C4B1B782B4ABE
:1011C0000133DB00134426229A80264B93F8D13159
:1011D0000133DAB2234B83F8D121254B01221A7057
:1011E000244B27221A70214B1B781A461F4B13449D
:1011F00025229A70204B98471A4B9B7D002B55D087
:10120000184B5B7B012B03D1174B1B78002B0AD1AA
:10121000144B5B7B002B46D1134B1B7883F00103EF
:10122000DBB2002B3FD00F4B9B7B012B3AD00D4BF9
:1012300001229A730D4B1B780C4A0133DB001344D7
:1012400001229A80074B5B7D0133DAB2054B5A7558
:10125000074B01221A70074B01221A7018E000BFD9
:10126000D10C0800382007203C2407207C250720CB
:101270008A1A072008230720792208000C23072058
:10128000880A0720B1C209008C1A0720EDC20900A4
:10129000A94B1B781A46A84B134425229A70A74BDA
:1012A000984703E002E0A64B04229A73A44B93F8FC
:1012B0002E30002B3ED0A24B93F82530012B04D1C9
:1012C000A04B93F83A30002B0CD19D4B93F825306E
:1012D000002B2BD19B4B93F83A3083F00103DBB208
:1012E000002B23D0964B012283F82620924B1B78AB
:1012F000914A0133DB00134403229A80904B93F808
:101300002D300133DAB28E4B83F82D208E4B012223
:101310001A708E4B03221A70874B1B781A46864B25
:10132000134425229A70854B984703E0844B04228E
:1013300083F82620824B93F84630002B3ED0804B1A
:1013400093F83D30012B04D17E4B93F83A30002BBB
:101350000CD17B4B93F83D30002B2BD1794B93F87C
:101360003A3083F00103DBB2002B23D0744B01220F
:1013700083F83E20704B1B786F4A0133DB00134427
:1013800003229A806E4B93F845300133DAB26C4BEE
:1013900083F845206C4B01221A706C4B05221A70A1
:1013A000654B1B781A46644B134425229A70634B95
:1013B000984703E0624B042283F83E20604B93F889
:1013C0003A30002B3ED05E4B93F83130012B04D1E4
:1013D0005C4B93F83B30002B0CD1594B93F83130D8
:1013E000002B2BD1574B93F83B3083F00103DBB23A
:1013F000002B23D0524B012283F832204E4B1B7816
:101400004D4A0133DB00134404229A804C4B93F87D
:1014100039300133DAB24A4B83F839204A4B012282
:101420001A704A4B04221A70434B1B781A46424BDF
:10143000134425229A70414B984703E0404B042205
:1014400083F832203E4B93F85230002B3ED03C4B79
:1014500093F84930012B04D13A4B93F83B30002BE1
:101460000CD1374B93F84930002B2BD1354B93F8E7
:101470003B3083F00103DBB2002B23D0304B012241
:1014800083F84A202C4B1B782B4A0133DB00134492
:1014900006229A802A4B93F851300133DAB2284B56
:1014A00083F85120284B01221A70284B06221A700B
:1014B000214B1B781A46204B134425229A701F4B50
:1014C000984703E01E4B042283F84A201C4B93F8F4
:1014D0009E32002B44D01B4B5B8B002B38D1184B1A
:1014E000012283F89622144B1B78134A0133DB0048
:1014F000134437229A80124B93F89D320133DAB2AB
:101500000F4B83F89D22104B01221A700F4B37228C
:101510001A70094B1B781A46074B134424229A7001
:10152000064B9847044B1B781A46034B134426225C
:101530009A70024B984713E07C2507207922080017
:10154000382007203C2407208A1A07200823072078
:10155000504B042283F896224E4B002283F89D22A2
:101560004D4BDB8E002B02D04C4B01221A704A4BA4
:10157000DB8E002B02D1494B02221A70454B93F8A7
:10158000AA32002B46D0444B93F83430002B04D0C1
:10159000404B93F8A132012B0CD03F4B93F83430E1
:1015A00083F00103DBB2002B34D03A4B93F8A13225
:1015B000002B2FD1374B93F8A232012B20D0354B83
:1015C000022283F8AE22334B012283F8A222344B4D
:1015D0001B78334A0133DB00134438229A80314BA5
:1015E00001221A70304B38221A702D4B1B781A4684
:1015F0002B4B134425229A702C4B01221A7006E0C3
:10160000244B002283F8A922264B00221A70284B73
:1016100000221A601F4B93F8B632002B54D01E4B99
:1016200093F83430002B04D01A4B93F8AD32012BD1
:101630000CD0194B93F8343083F00103DBB2002B4C
:1016400042D0144B93F8AD32002B3DD1114B93F89F
:10165000AE32012B2ED00F4B93F8B632002B30D088
:101660000C4B022283F8A2220A4B012283F8AE22FD
:101670000C4B01221A700C4B39221A70084B1B7844
:101680001A46074B134425229A70084B02221A70FF
:1016900017E000BF382007203C2407201C1C07202F
:1016A0007C2507208A1A072008230720441C0720CE
:1016B000080107209A4B002283F8B522994B00229B
:1016C0001A70994B01221A60954B93F80631002B42
:1016D00032D0934B93F8FE30012B2DD0934B996968
:1016E000934B1A68934B0846114698470346002BC4
:1016F00022D08B4B012283F8FE208F4B1B788E4A21
:101700000133DB00134415229A80854B93F8053191
:101710000133DAB2824B83F80521824B01221A7021
:10172000864B15221A70844B1B781A46824B134441
:1017300025229A70824B9847794B93F81231002BEF
:1017400032D0774B93F80A31012B2DD0774BD969E2
:10175000774B1A687B4B0846114698470346002B87
:1017600022D06F4B012283F80A21734B1B78724AF7
:101770000133DB00134416229A80694B93F8113130
:101780000133DAB2664B83F81121664B01221A70DD
:101790006A4B16221A70684B1B781A46664B134424
:1017A00025229A70664B98475D4B93F81E31002BAB
:1017B00045D05B4B93F81631012B40D05B4B196A37
:1017C000614B1A685B4B0846114698470346002B4D
:1017D00035D05D4B1A685D4B1046984703469BB267
:1017E000FB8018205A4904225A4B9847BB1D1920E8
:1017F00019460222574B9847494B012283F816217C
:101800004D4B1B784C4A0133DB00134417229A805E
:10181000434B93F81D310133DAB2414B83F81D215C
:10182000404B01221A70454B17221A70424B1B780D
:101830001A46414B134425229A70414B9847384B26
:1018400093F82A31002B32D0354B93F82231012BFB
:101850002DD0364B596A3C4B1A683A4B0846114614
:1018600098470346002B22D02D4B012283F82221DA
:10187000314B1B78304A0133DB00134418229A8025
:10188000274B93F829310133DAB2254B83F829210C
:10189000244B01221A70294B18221A70264B1B78F0
:1018A0001A46254B134425229A70254B98471C4B0A
:1018B00093F8C232002B70D01C4B996A264B1A68E1
:1018C0001C4B0846114698470346002B46D0144B44
:1018D00093F8BA32012B41D0114B012283F8BA227E
:1018E000154B1B78144A0133DB0013443A229A80CB
:1018F0000B4B93F8C1320133DAB2094B83F8C122A2
:10190000084B01221A700D4B3A221A700A4B1B78B1
:101910001A46094B134424229A70094B98473CE01D
:10192000382007208A1A0720080107200C230720E7
:10193000901A0720B1C209007C2507200823072040
:1019400079220800EDC20900941A07204DC309004E
:101950005CF30900CD470900981A0720934B93F8D0
:10196000BA32012B19D1924B9B8C1A46914B1046DF
:1019700098470446904B9A6A904B10469049984776
:1019800003461A468F4B2046114698470346002BC4
:1019900003D0864B042283F8BA22844B93F8CE32CC
:1019A000002B52D0844BD96A874B1A68874B084664
:1019B000114698470346002B28D07C4B93F8C6323B
:1019C000012B23D0794B012283F8C622804B1B7850
:1019D0007F4A0133DB0013443B229A80734B93F818
:1019E000CD320133DAB2714B83F8CD22794B01222B
:1019F0001A70794B3B221A70754B1B781A46744B40
:101A0000134424229A70754B98471EE0674B93F855
:101A1000C632012B19D1664B9B8C1A46654B10467A
:101A200098470446644BDA6A644B10466449984709
:101A300003461A46634B2046114698470346002B3F
:101A400003D05A4B042283F8C622584B93F8BE3079
:101A5000002B2DD0584B996B614B1A68594B084697
:101A6000114698470346002B22D0504B012283F8A1
:101A7000B620574B1B78564A0133DB0013440F2224
:101A80009A804A4B93F8BD300133DAB2474B83F862
:101A9000BD20504B01221A704F4B0F221A704C4B35
:101AA0001B781A464A4B134425229A704B4B984791
:101AB0003E4B93F8CA30002B3ED03F4BD96B484B7E
:101AC0001A68424B0846114698470346002B23D01C
:101AD000364B012283F8C2203D4B1B783C4A013330
:101AE000DB00134410229A80304B93F8C930013345
:101AF000DAB22E4B83F8C920364B01221A70364BCE
:101B000010221A70324B1B781A46314B134425228F
:101B10009A70324B98470FE0244B93F8C230012B58
:101B20000AD1224B042283F8C220204B002283F8E2
:101B3000C920284B00221A701C4B93F8EE30002B62
:101B400062D01D4B996C274B1A681E4B08461146F4
:101B500098470346002B47D0144B93F8E630012BEF
:101B600052D0124B012283F8E620194B1B78184AF9
:101B70000133DB00134413229A800C4B93F8ED30B1
:101B80000133DAB2094B83F8ED20124B01221A70AF
:101B9000114B13221A700E4B1B781A460C4B134430
:101BA00025229A700D4B98472EE000BF3820072061
:101BB0003C240720CDBE09000C23072061BD09008D
:101BC00000004843B1C20900981A0720EDC209007D
:101BD0007C2507208A1A072008230720792208007D
:101BE0009C1A0720A41A07209F4B93F8E630012B7C
:101BF0000AD19D4B042283F8E6209B4B002283F8F8
:101C0000ED209A4B00221A70974B93F8FA30002B74
:101C100043D0974BD96C974B1A68974B084611469F
:101C200098470346002B28D08F4B93F8F230012BB6
:101C300033D08D4B012283F8F220904B1B788F4AD2
:101C40000133DB00134414229A80874B93F8F93058
:101C50000133DAB2844B83F8F920844B01221A70E5
:101C6000874B14221A70854B1B781A46834B1344FA
:101C700025229A70834B98470FE07B4B93F8F23004
:101C8000012B0AD1784B042283F8F220764B0022F4
:101C900083F8F920754B00221A70734B93F8D630F5
:101CA000002B43D0724B196C774B1A68774B084660
:101CB000114698470346002B28D06B4B93F8CE3043
:101CC000012B33D0684B012283F8CE206B4B1B785D
:101CD0006A4A0133DB00134411229A80624B93F865
:101CE000D5300133DAB2604B83F8D5205F4B012247
:101CF0001A70634B11221A70604B1B781A465F4BA7
:101D0000134425229A705F4B98470FE0564B93F887
:101D1000CE30012B0AD1544B042283F8CE20524BF3
:101D2000002283F8D520514B00221A704E4B93F8B5
:101D3000E230002B32D04E4B596C534B1A684E4B4D
:101D40000846114698470346002B27D0464B93F888
:101D5000DA30012B22D0444B012283F8DA20474BA2
:101D60001B78464A0133DB00134412229A803E4B13
:101D700093F8E1300133DAB23B4B83F8E1203B4B7F
:101D800001221A703E4B12221A703C4B1B781A46E5
:101D90003A4B134425229A703A4B9847324B93F8AA
:101DA0007630002B0AD1304B93F88230002B05D1CE
:101DB0002D4B93F88E30002B00F0FA80344B00222C
:101DC0001A703348334B9847314B1B780A2B63D03A
:101DD0000B2B00F0A780092B40F0EA802C4B1B78DE
:101DE0001946214A0B465B000B449B001344012219
:101DF0009A701D4B042283F87A201B4B042283F82F
:101E000086201E4B1B781846214B1B7899B21B4A23
:101E1000431CDB0013440A469A801D4B1B781A466C
:101E2000114913465B0013449B000B4408335B7855
:101E30000133D8B20C4913465B0013449B000B449A
:101E4000083302465A70094B01221A70104B1A7857
:101E50000B4B1A70094B1B781A46084B134425226A
:101E60009A70084B9847A3E0382007208A1A072069
:101E70000C230720A41A0720EDC209007C250720A7
:101E80000823072079220800A01A0720B1C2090000
:101E9000891A0720C12708009A4B1B7819469A4ACD
:101EA0000B465B000B449B00134401229A70964B37
:101EB000042283F86E20944B042283F88620934BEF
:101EC0001B7818468F4B1B7899B2904A431CDB0055
:101ED00013440A469A808B4B1B781A468A4913464C
:101EE0005B0013449B000B4408335B780133D8B28A
:101EF000854913465B0013449B000B44083302469C
:101F00005A70834B01221A707E4B1A78814B1A70DB
:101F10007E4B1B781A467D4B134425229A707E4BCC
:101F2000984745E0774B1B781946774A0B465B008C
:101F30000B449B00134401229A70734B042283F8D4
:101F40006E20714B042283F87A20704B1B78184660
:101F50006C4B1B7899B26D4A431CDB0013440A4654
:101F60009A80684B1B781A46674913465B001344F6
:101F70009B000B4408335B780133D8B262491346A7
:101F80005B0013449B000B44083302465A70604BBD
:101F900001221A705B4B1A785E4B1A705B4B1B78F0
:101FA0001A465A4B134425229A705B4B984700BF40
:101FB000554B93F85E30002B05D1534B93F86A30A4
:101FC000002B00F0B080554B00221A705348544B40
:101FD0009847524B1B78072B02D0082B49D0A2E020
:101FE000494B93F85E30002B42D0474B93F8563064
:101FF000012B3DD0494B1B781946434A0B465B00E9
:102000000B449B00134401229A70404B1B781846E6
:10201000424B1B7899B23D4A431CDB0013440A46ED
:102020009A803E4B1B781A46374913465B0013448F
:102030009B000B4408335B780133D8B23249134616
:102040005B0013449B000B44083302465A70304B2C
:1020500001221A70314B1A782E4B1A702B4B1B78B9
:102060001A462A4B134425229A702B4B98475AE064
:1020700059E0254B93F86A30002B53D0224B93F84C
:102080006230012B4ED0254B1B7819461E4A0B4659
:102090005B000B449B00134401229A701B4B1B787E
:1020A00018461E4B1B7899B2184A431CDB00134498
:1020B0000A469A80194B1B781A46134913465B004F
:1020C00013449B000B4408335B780133D8B20E49AC
:1020D00013465B0013449B000B44083302465A70BE
:1020E0000B4B01221A700D4B1A780A4B1A70074BD2
:1020F0001B781A46054B134425229A70064B9847C5
:1021000010E000BF891A0720382007207C2507200F
:102110008A1A07200823072079220800881A072036
:102120006926080000BF494B1B78002B00F088800F
:10213000474B93F89A30002B09D1454B93F8A630C2
:10214000002B04D1424B93F8B230002B78D0414B96
:10215000DB8E1A46404B1B689A420CD03F4B002244
:102160001A603F4B1B6801333D4A13603D4B1B68AF
:1021700001333C4A1360394B1B68282B2BD9344B55
:1021800093F89230012B26D0314B012283F8922014
:10219000354B1B78344A0133DB0013440C229A8000
:1021A0002B4B93F899300133DAB2294B83F89920FD
:1021B000274B042283F892202C4B01221A702C4BBF
:1021C0000C221A70284B1B781A46274B13442422E2
:1021D0009A70284B9847224B1B68022B2BD91C4B1B
:1021E00093F8AA30012B26D0194B012283F8AA209C
:1021F0001D4B1B781C4A0133DB0013440E229A80CE
:10220000134B93F8B1300133DAB2114B83F8B1209C
:102210000F4B042283F8AA20144B01221A70144B8E
:102220000E221A70104B1B781A460F4B13442422AF
:102230009A70104B9847074BDB8E1A46064B1A6074
:10224000002318460C37BD4690BD00BFC31B0720B6
:10225000382007203C240720781A07207C1A072002
:10226000801A0720841A07207C2507208A1A072055
:10227000082307207922080080B400AF0A4B1B789E
:10228000002B0CD0094B1B780A2B08D8074B0122D6
:102290005A70064B1B780133DAB2044B1A70184699
:1022A000BD465DF8047B70478A1A07207C2507200D
:1022B00090B482B000AF0446084611461A46234641
:1022C000FB710346BB710B46BB8013467B80FA79DA
:1022D000144913465B0013449B000B44BA795A70AF
:1022E000FA79104913465B0013449B000B447A882B
:1022F000DA80FA790B4913465B0013449B000B44C8
:10230000BA889A80FA79074913465B0013449B0008
:102310000B4408333A7C1A7018460837BD4690BC07
:10232000704700BF3820072080B485B000AF034657
:102330000A46FB711346BB710023FB73FB79382BF4
:1023400005D0FB79392B02D0FB79372B3DD1BB79F6
:10235000002B1DD0FA79464913465B0013449B00BD
:102360000B44083301229A70FA79414913465B0005
:1023700013449B000B4402229A70FA793C4913469D
:102380005B0013449B000B44083300225A701CE08E
:10239000FA79374913465B0013449B000B4408331A
:1023A00000229A70FA79324913465B0013449B006D
:1023B0000B4404229A70FA792D4913465B001344AA
:1023C0009B000B44083300225A702A4B1B78002BC9
:1023D00046D0FA79264913465B0013449B000B4410
:1023E000FA791A70BB79002B1DD0FA79204913466F
:1023F0005B0013449B000B44083301229A70FA7966
:102400001B4913465B0013449B000B4402229A7045
:10241000FA79174913465B0013449B000B440833B9
:1024200000225A701CE0FA79114913465B001344EC
:102430009B000B44083300229A70FA790C4913462A
:102440005B0013449B000B4404229A70FA790849FC
:1024500013465B0013449B000B44083300225A7060
:10246000FB7B18461437BD465DF8047B704700BF00
:10247000382007204C0E072080B485B000AF0346FB
:10248000FB710023FB73FA79074913465B00134481
:102490009B000B4402229A70FB7B18461437BD4602
:1024A0005DF8047B704700BF3820072080B485B0FA
:1024B00000AF03463960FB710023FB73FA791049C2
:1024C00013465B0013449B000B449B78012B09D0FF
:1024D000FA790B4913465B0013449B000B449B782D
:1024E000032B03D13B6801221A7002E03B680022F3
:1024F0001A70FB7B18461437BD465DF8047B7047A5
:102500003820072080B582B000AF03460A46FB7131
:102510001346BB71FA79394913465B0013449B009B
:102520000B4408339B78002B64D0BB79002B41D03F
:10253000FA79324913465B0013449B000B44012295
:102540009A702F4B1B78FA7991B22D4A0133DB0038
:1025500013440A469A80FA79284913465B001344CB
:102560009B000B4408335B780133D8B223491346F0
:102570005B0013449B000B44083302465A70214B06
:1025800001221A70204AFB791370FB79372B07D18F
:102590001B4B1B781A461A4B134424229A7006E0F0
:1025A000174B1B781A46164B134425229A70174B6B
:1025B00098471FE0FA79114913465B0013449B00CA
:1025C0000B449B78012B15D1FA790C4913465B001B
:1025D00013449B000B4404229A70FA79074913466E
:1025E0005B0013449B000B44083300225A70054BD8
:1025F00000221A7018460837BD4680BD38200720D3
:102600007C2507208A1A0720082307207922080042
:1026100080B483B000AF0023FB710F4B1B880133E4
:102620009AB20D4B1A800D4B00221A600C4B1B689E
:1026300001330B4A1360084B1B88142B05D9094B37
:1026400000221A60044B00221A8018460C37BD463F
:102650005DF8047B704700BFA81A0720801A072086
:102660007C1A0720841A072080B483B000AF7860FA
:102670004D4B1B7883F00103DBB2002B07D04B4B93
:10268000DA8D4B4B1A80484B01221A7011E0484BEF
:102690001B881A461346DB001344444AD28D134468
:1026A000444A82FB03129210DB17D31A9AB2404BB2
:1026B0001A80414B1B78032B6ED801A252F823F0ED
:1026C000D1260800D12608000D270800532708004E
:1026D000374B1B881A46394B1B881BB29A4205DAC6
:1026E0007B6807221A70344B02221A70304B1B8809
:1026F0001A46324B5B881BB29A4206DD7B68082281
:102700001A702D4B03221A7047E046E0284B1B88B5
:102710001A462A4B5B881BB29A4206DD7B68082268
:102720001A70254B03221A7012E0214B1B881A469F
:10273000224B1B881BB29A4203DD1F4B01221A70E9
:1027400006E07B6807221A701B4B02221A7024E0F5
:1027500023E0174B1B881A46184B1B881BB29A4262
:1027600006DA7B6807221A70134B02221A7012E0F5
:102770000F4B1B881A46114B5B881BB29A4203DA37
:102780000D4B01221A7006E07B6808221A700A4B72
:1027900003221A7001E000E000BF18460C37BD4666
:1027A0005DF8047B704700BFB01A07203C24072067
:1027B000AA1A072067666666AE1A07200C23072050
:1027C00080B483B000AF78603A4B1B881A4613463A
:1027D000DB001344384A128E1344384A82FB03123A
:1027E0009210DB17D31A9AB2324B1A80344B1B78F3
:1027F000032B59D801A252F823F000BF0D2808007E
:10280000452808000D28080073280800294B1B885C
:10281000322B0AD9274B1B88B3F5FA6F05D27B6898
:102820000A221A70264B01221A70224B1B88B3F51C
:10283000FA6F06D97B680B221A70214B03221A709B
:1028400032E031E01B4B1B88B3F5FA6F05D97B688A
:102850000B221A701A4B03221A70164B1B88312B4D
:1028600006D87B6809221A70154B02221A701BE0E9
:102870001AE0104B1B88322B0AD90E4B1B88B3F57C
:10288000FA6F05D27B680A221A700D4B01221A706A
:10289000084B1B88312B06D87B6809221A70084B1D
:1028A00002221A70FFE700BF18460C37BD465DF8DC
:1028B000047B7047AC1A07203C24072067666666D5
:1028C000AF1A072080B584B000AF0346FB71002328
:1028D000FB73FB79043B092B3ED801A252F823F08D
:1028E000092908004B29080059290800592908001E
:1028F00059290800592908005929080023290800E6
:1029000059290800592908000720AD4B984703466C
:10291000FB73AC4B1A78AC4B1A70AA4B02221A709C
:102920001AE00720A64B98470346FB73A64B1B787B
:102930001A46A64B9B5C1846A14B98470346FB736F
:10294000A14B1A789F4B1A7006E011209C4B9847B8
:102950009C4B00221A7000BF9A4B1B78152B00F27B
:10296000EA8201A252F823F0372F0800372F08001F
:10297000C12908006D2A0800592B08008F2B080078
:10298000AB2B0800072C0800232C0800492C08005A
:10299000652C08009B2C0800B72C0800192D080096
:1029A0009F2D0800012E0800AF2E0800372F0800C9
:1029B000F32E0800372F0800372F0800372F0800A4
:1029C000FB79013B072B4FD801A252F823F000BF3F
:1029D000F1290800F9290800692A0800692A080075
:1029E000692A0800192A0800692A0800412A0800F3
:1029F000774B01221A7038E0754B1B78002B0AD0F8
:102A0000704B1A78704B1A706E4B03221A70704B11
:102A100000221A7029E028E06E4B00221A8005205F
:102A2000674B98470346FB73FB7B002B07D1654B35
:102A30001A78654B1A70634B10221A7015E014E077
:102A4000644B00221A8006205D4B98470346FB73B7
:102A5000FB7B002B07D15B4B1A785B4B1A70594BF1
:102A600012221A7001E000E000BF65E2FB79013B31
:102A7000072B6FD801A252F823F000BF552B080096
:102A80009D2A0800552B0800552B0800552B0800DF
:102A9000052B0800552B08002D2B08004D4B1B88DB
:102AA0009BB29AB2013292B291B24A4A11801BB2E1
:102AB0003C2B26DD474B00221A80022040F24C417D
:102AC000454B9847012040F21A41434B9847052057
:102AD0003B4B98470346FB731320404B98470346F4
:102AE000FB7348203E4B98470346FB73FB7B002B50
:102AF00007D1344B1A78344B1A70324B0C221A70AF
:102B000029E028E0334B00221A8005202C4B9847FF
:102B10000346FB73FB7B002B07D12A4B1A782A4B09
:102B20001A70284B10221A7015E014E0294B00226D
:102B30001A800620224B98470346FB73FB7B002B31
:102B400007D1204B1A78204B1A701E4B12221A7094
:102B500001E000E000BFEFE1FB79012B02D0022B86
:102B600004D013E01A4B01221A700FE0184B1B78A7
:102B7000002B0AD0134B1A78134B1A70114B0522F5
:102B80001A70134B00221A70FFE700BFD4E1FB79E3
:102B9000022B04D0032B04D0012B04D004E000BF8F
:102BA000CAE100BFC8E100BFC6E1FB79012B02D03A
:102BB000022B17D026E0064B01221A7022E000BF3C
:102BC000F12D0900B11A0720B21A072010010720C1
:102BD000B31A0720B61A0720992C0900412C0900C6
:102BE0007D960800924B1B78002B0AD0914B1A78E7
:102BF000914B1A708F4B07221A708D4B00221A705E
:102C0000FFE700BF98E1FB79022B04D0032B04D02F
:102C1000012B04D004E000BF8EE100BF8CE100BFB7
:102C20008AE1FB79012B02D0022B0BD00BE0814B08
:102C30001A78814B1A707F4B09221A707C4B002244
:102C40001A7000E000BF77E1FB79022B04D0032B60
:102C500004D0012B04D004E000BF6DE100BF6BE1A4
:102C600000BF69E1FB79012B02D0022B04D013E0F5
:102C70006F4B01221A700FE06D4B1B78002B0AD0AE
:102C80006C4B1A786C4B1A706A4B0B221A70684B9B
:102C900000221A70FFE700BF4EE1FB79022B04D03F
:102CA000032B04D0012B04D004E000BF44E100BF9B
:102CB00042E100BF40E1FB79002B01D0022B2AE06A
:102CC0005E4B1B889BB29BB201339BB29AB25B4BAB
:102CD0001A805B4B1B881BB2132B11DC584B1B88D3
:102CE0001BB2022B02D11320564B9847544B1B8822
:102CF0009BB29BB201339BB29AB2514B1A8009E04E
:102D00004F4B00221A804B4B1A784B4B1A70494B91
:102D10000D221A7000BF0FE1FB79032B3DD801A2F1
:102D200052F823F0352D08009B2D08009B2D08003C
:102D3000492D0800414B1B889BB29BB201339BB2CB
:102D40009AB23E4B1A8029E03F4B01221A700023B1
:102D5000BB603A4B1B889BB23B811623BB7207F1C9
:102D60000803372019460422384B98470620384B71
:102D700098470346FB731320364B9847FB7B002B89
:102D80000AD12C4B1A782C4B1A702A4B0E221A702F
:102D90002A4B00221A8001E000E000BFCCE0FB7962
:102DA000002B01D0022B2AE0244B1B889BB29BB244
:102DB00001339BB29AB2214B1A80214B1B881BB264
:102DC000132B11DC1E4B1B881BB2022B02D11320CC
:102DD0001C4B98471A4B1B889BB29BB201339BB28A
:102DE0009AB2174B1A8009E0154B00221A80114B3A
:102DF0001A78114B1A700F4B0F221A7000BF9BE00C
:102E0000FB79032B51D801A252F823F01D2E0800A4
:102E1000AB2E0800AB2E0800592E0800074B1B886C
:102E20009BB29BB201339BB29AB2044B1A803DE035
:102E3000B31A0720B11A0720B21A0720B81A0720C0
:102E4000B41A0720412C0900BB1B0720CD470900FD
:102E5000F12D0900212C09003A4B01221A700023A0
:102E6000BB60394B1B889BB23B811523BB7207F1BA
:102E70000803372019460422344B98470520344B69
:102E800098470346FB731320324B9847FB7B002B7C
:102E90000AD1314B1A78314B1A702B4B00221A8011
:102EA0002D4B0C221A7001E000E000BF44E0FB79DA
:102EB000042B0BD0072B00D01AE00520244B984799
:102EC0000346FB73244B11221A7011E00720204B9C
:102ED00098470346FB73204B1A78204B1A701E4B01
:102EE00002221A7013201B4B98470346FB7300BF46
:102EF00022E0FB79042B0BD0092B00D01AE006202E
:102F0000134B98470346FB73134B13221A7011E0BF
:102F100007200F4B98470346FB730F4B1A780F4B54
:102F20001A7013200B4B98470346FB730A4B02227F
:102F30001A7000BF00E000BF002318461037BD46DE
:102F400080BD00BFBB1B0720B81A0720CD47090072
:102F5000F12D0900212C0900B11A0720B21A07200F
:102F600080B485B000AF0346FB800023FB606DE0BA
:102F70003A4AFB689B0013445B889BB2FA889A42EA
:102F800007D1364AFB6832F823309AB2344B1A80A4
:102F900059E0324AFB689B0013445B889BB2FA8875
:102FA0009A4250D9FB6801332C4A9B0013445B883A
:102FB0009BB2FA889A4246D2FB680133274A9B00AB
:102FC00013445B889BB21946244AFB689B00134458
:102FD0005B889BB2CA1AFB680133204931F8233061
:102FE0009BB219B21D48FB6830F823309BB21BB26C
:102FF000CB1A92FBF3F39BB21A46920013445B0088
:103000009BB27B81B7F90A30164A82FB03129210F9
:10301000DB17D31A9BB29AB2F9881048FB689B0061
:1030200003445B889BB2CB1A9BB203FB02F39AB2B8
:103030000A49FB6831F823309BB29BB213449BB220
:103040009AB2074B1A80FB680133FB60FB68132BB5
:103050008EDD1437BD465DF8047B7047880A072073
:10306000782307206766666680B485B000AF0346A4
:10307000FB800023FB606EE03B4AFB689B0013442F
:103080005B889BB2FA889A4207D1374AFB6832F8CC
:1030900023309AB2354B1A8060E0334AFB689B00BC
:1030A00013445B889BB2FA889A4251D9FB6801337A
:1030B0002D4A9B0013445B889BB2FA889A4247D200
:1030C000FB680133284A9B0013445B889BB2194676
:1030D000254AFB689B0013445B889BB2CA1AFB68B5
:1030E0000133214931F823309BB219B21E48FB68E5
:1030F00030F823309BB21BB2CB1A92FBF3F39BB296
:103100001A46920013445B009BB27B81B7F90A30E8
:10311000174A82FB03129210DB17D31A9BB29AB2A2
:10312000F9881148FB689B0003445B889BB2CB1A6B
:103130009BB203FB02F39AB20B49FB6831F82330D0
:103140009BB29BB213449BB29AB2084B1A8005E023
:10315000FB680133FB60FB68312B8DDD1437BD4606
:103160005DF8047B704700BF280B07207A230720F7
:103170006766666680B485B000AF0346FB800023B7
:10318000FB606EE03B4AFB689B0013445B889BB28C
:10319000FA889A4207D1374AFB6832F823309AB24C
:1031A000354B1A8060E0334AFB689B0013445B8810
:1031B0009BB2FA889A4251D9FB6801332D4A9B0091
:1031C00013445B889BB2FA889A4247D2FB6801336A
:1031D000284A9B0013445B889BB21946254AFB682A
:1031E0009B0013445B889BB2CA1AFB6801332149D8
:1031F00031F823309BB219B21E48FB6830F82330F7
:103200009BB21BB2CB1A92FBF3F39BB21A4692000D
:1032100013445B009BB27B81B7F90A30174A82FBEB
:1032200003129210DB17D31A9BB29AB2F988114895
:10323000FB689B0003445B889BB2CB1A9BB203FBE9
:1032400002F39AB20B49FB6831F823309BB29BB270
:1032500013449BB29AB2084B1A8005E0FB68013315
:10326000FB60FB68312B8DDD1437BD465DF8047BB8
:10327000704700BFF00B072086230720676666664D
:1032800080B485B000AF0346FB800023FB606EE096
:103290003B4AFB689B0013445B889BB2FA889A42C6
:1032A00007D1374AFB6832F823309AB2354B1A807F
:1032B00060E0334AFB689B0013445B889BB2FA884A
:1032C0009A4251D9FB6801332D4A9B0013445B8815
:1032D0009BB2FA889A4247D2FB680133284A9B0086
:1032E00013445B889BB21946254AFB689B00134434
:1032F0005B889BB2CA1AFB680133214931F823303D
:103300009BB219B21E48FB6830F823309BB21BB247
:10331000CB1A92FBF3F39BB21A46920013445B0064
:103320009BB27B81B7F90A30174A82FB03129210D5
:10333000DB17D31A9BB29AB2F9881148FB689B003D
:1033400003445B889BB2CB1A9BB203FB02F39AB295
:103350000B49FB6831F823309BB29BB213449BB2FC
:103360009AB2084B1A8005E0FB680133FB60FB68EA
:10337000312B8DDD1437BD465DF8047B704700BFEF
:10338000B80C0720882307206766666680B485B07E
:1033900000AF0346FB800023FB606EE03B4AFB6806
:1033A0009B0013445B889BB2FA889A4207D1374A44
:1033B000FB6832F823309AB2354B1A8060E0334A0A
:1033C000FB689B0013445B889BB2FA889A4251D9F0
:1033D000FB6801332D4A9B0013445B889BB2FA883B
:1033E0009A4247D2FB680133284A9B0013445B880A
:1033F0009BB21946254AFB689B0013445B889BB22D
:10340000CA1AFB680133214931F823309BB219B243
:103410001E48FB6830F823309BB21BB2CB1A92FBDC
:10342000F3F39BB21A46920013445B009BB27B817C
:10343000B7F90A30174A82FB03129210DB17D31A2E
:103440009BB29AB2F9881148FB689B0003445B88E1
:103450009BB2CB1A9BB203FB02F39AB20B49FB68F7
:1034600031F823309BB29BB213449BB29AB2084B03
:103470001A8005E0FB680133FB60FB68132B8DDDD0
:103480001437BD465DF8047B704700BFD80A07209B
:1034900084230720676666662DE9904387B000AFF6
:1034A00078600B46FB707B683B61FB78002B40F03B
:1034B000E98000237B6199E08D4A7B6952F83320D3
:1034C0008C4B1046984702468B4B104639699847FB
:1034D0000346002B11D0864A7B69DB0013445B68EE
:1034E000BB60BB68854AA2FB03235A09814B104687
:1034F00098470246824B1A607CE07D4A7B6952F80D
:1035000033207C4B1046984702467E4B1046396963
:1035100098470346002B66D07B690133744A52F802
:103520003320744B104698470246774B1046396952
:1035300098470346002B56D07B6901336C4A52F8FA
:1035400033206B497B6951F83330D31A4FF47A72C8
:1035500002FB03F27B6901336549DB000B445968C8
:1035600063487B69DB0003445B68CB1AB2FBF3F270
:10357000604B104698470346FB605D4A7B6952F8F2
:1035800033205C4B104698470246604B3869114621
:10359000984703461A465E4B1046F968984703461B
:1035A0001A465C4B10465C49984703461C46504AF5
:1035B0007B69DB0013445A684E4B1046984702461D
:1035C000564B20461146984703461A464C4B1A6004
:1035D0004B4B1A684F4B10465149984703461A46C1
:1035E000474B1A6006E07B6901337B617B69632B83
:1035F0007FF762AF474B78684749984703467B603F
:10360000484B7868984702460B46474C1046194687
:1036100031A3D3E90023A04702460B4690469946C2
:10362000404B7868984702460B463F4C4046494617
:10363000A04702460B46904699463A4B7868984711
:1036400002460B46384C1046194625A3D3E9002301
:10365000A04702460B46354C40464946A047024625
:103660000B46324C104619461FA3D3E90023A0474E
:1036700002460B46104619462D4B98470246204BF2
:103680001A6037E2FB78012B40F0198100237B613F
:10369000C9E0284A7B6952F83320164B10469847F8
:1036A0000246154B1046396998470346002B45D012
:1036B000204A7B69DB0013445B68BB60BB680F4A30
:1036C000A2FB03235A090B4B1046984702461A4B9C
:1036D0001A60ACE0AFF30080D1D1C3331548FD3F91
:1036E000E0B7A5FE0FA03640266E100B879EE23F86
:1036F00028010720C5BE09009DC209001F85EB51A6
:10370000BC1A0720B1C20900EDC2090061BD090061
:1037100075BF0900DDC0090000007A4465BD0900DD
:103720000000C8424DB60900F5B6090091B3090082
:10373000B9BC090048040720C01A07207A4A7B69EF
:1037400052F83320794B104698470246784B104682
:10375000396998470346002B62D07B690133724A6E
:1037600052F83320714B104698470246714B104671
:10377000396998470346002B52D07B6901336A4A66
:1037800052F8332068497B6951F83330D31A4FF42B
:103790007A7202FB03F27B6901336349DB000B445D
:1037A000596861487B69DB0003445B68CB1AB2FB54
:1037B000F3F25E4B104698470346FB605A4A7B691A
:1037C00052F83320594B1046984702465A4B3869F5
:1037D0001146984703461A46584B1046F9689847D1
:1037E00003461A46564B10465649984703461C4610
:1037F0004D4A7B69DB0013445A684C4B104698478E
:103800000246514B20461146984703461A464C4BF8
:1038100010464E49984703461A464D4B1A6006E03B
:103820007B6901337B617B69632B7FF732AF444B4C
:1038300078684449984703467B60464B78689847C8
:1038400002460B46444C1046194631A3D3E90023E7
:10385000A04702460B46904699463E4B78689847EB
:1038600002460B463C4C40464946A04702460B46A2
:1038700090469946374B7868984702460B46364C37
:103880001046194624A3D3E90023A04702460B465D
:10389000324C40464946A04702460B462F4C104644
:1038A00019461FA3D3E90023A04702460B46104642
:1038B00019462B4B98470246254B1A601AE1FB78B4
:1038C000022B40F0178100237B61C8E0254A7B6909
:1038D00052F83320154B104698470246224B1046AB
:1038E000396998470346002B44D01E4A7B69DB00A8
:1038F00013445B68BB60BB681C4AA2FB03235A09E4
:103900000A4B104698470246194B1A60ABE000BFBD
:10391000D1D1C3331548FD3FE0B7A5FE0FA0364017
:10392000266E100B879EE23F48040720C5BE0900A3
:10393000B1C20900EDC2090061BD090075BF0900EF
:10394000DDC0090000007A4465BD09000000C842DE
:10395000C01A07204DB60900F5B6090091B3090059
:10396000B9BC0900680707209DC209001F85EB51FB
:10397000C41A0720684A7B6952F83320674B104607
:1039800098470246664B1046396998470346002B14
:1039900062D07B690133604A52F833205F4B104696
:1039A000984702465F4B1046396998470346002BFB
:1039B00052D07B690133584A52F8332056497B690B
:1039C00051F83330D31A4FF47A7202FB03F27B6959
:1039D00001335149DB000B4459684F487B69DB00D8
:1039E00003445B68CB1AB2FBF3F24C4B104698478A
:1039F0000346FB60484A7B6952F83320474B104628
:103A000098470246484B38691146984703461A467C
:103A1000464B1046F968984703461A46444B1046F1
:103A20004449984703461C463B4A7B69DB001344E4
:103A30005A683A4B1046984702463F4B204611467B
:103A4000984703461A463A4B10463C499847034666
:103A50001A463B4B1A6006E07B6901337B617B6948
:103A6000632B7FF733AF324B786832499847034670
:103A70007B60344B7868984702460B46324C1046C0
:103A800019461FA3D3E90023A04702460B469046E0
:103A900099462C4B7868984702460B462A4C40467C
:103AA0004946A04702460B4690469946254B786802
:103AB000984702460B46244C1046194612A3D3E9F8
:103AC0000023A04702460B46204C40464946A047EB
:103AD00002460B461D4C104619460DA3D3E90023A0
:103AE000A04702460B4610461946194B9847024616
:103AF000134B1A601C37BD46BDE89083AFF30080BE
:103B0000D1D1C3331548FD3FE0B7A5FE0FA0364025
:103B1000266E100B879EE23F68070720C5BE09008E
:103B2000B1C20900EDC2090061BD090075BF0900FD
:103B3000DDC0090000007A4465BD09000000C842EC
:103B4000C41A07204DB60900F5B6090091B3090063
:103B5000B9BC090080B58AB000AF0346FB710423ED
:103B600087F82730452387F8263007F10C03002219
:103B70001A60043300221A60043300221A600433EE
:103B800000221A60043300221A600433FB790D2BE3
:103B900000F080830E2B01D000F043BCBB4B1B7E9A
:103BA000002B00F07683B94B1B79013B202B00F2F0
:103BB0006F8301A252F823F03D3C0800753C0800D9
:103BC000213D0800493D080091420800914208004B
:103BD0009142080091420800914208009142080079
:103BE0009142080091420800914208009142080069
:103BF000914208009142080091420800813D08006E
:103C00009142080091420800914208009142080048
:103C10009142080091420800914208009142080038
:103C2000914208009142080091420800AD3C080012
:103C300091420800D53C0800FD3C0800162387F897
:103C4000263001233B7307F10C0301330120194691
:103C50008F4B9847034687F8273097F8262007F1BF
:103C60000C031046194602228A4B9847034687F8F0
:103C700027300EE3162387F8263002233B7307F123
:103C80000C03013302201946814B9847034687F8FD
:103C9000273097F8262007F10C0310461946022218
:103CA0007C4B9847034687F82730F2E2162387F8C3
:103CB000263020233B7300237B7397F8262007F1DF
:103CC0000C03104619460222724B9847034687F8A8
:103CD0002730DEE2162387F8263021233B730023AA
:103CE0007B7397F8262007F10C0310461946022231
:103CF000684B9847034687F82730CAE2162387F8AF
:103D0000263023233B7397F8262007F10C03104637
:103D1000194602225F4B9847034687F82730B8E2DE
:103D2000162387F8263003233B7300237B7397F811
:103D3000262007F10C03104619460222554B9847DE
:103D4000034687F82730A4E2162387F82630042399
:103D50003B7307F10C030133042019464C4B984781
:103D6000034687F8273097F8262007F10C03104602
:103D700019460222474B9847034687F8273088E2C6
:103D8000162387F8263012233B73404B5B79252B93
:103D900021D83E4B5B797B737B7B1A463E4B53F8B5
:103DA00022303B6297F82030BB7397F82130FB73C9
:103DB00097F822303B7497F823307B7497F82620CD
:103DC00007F10C03104619460622324B984703466A
:103DD00087F827305BE22D4B5B792D2B00F2578261
:103DE0002A4B5B797B73294B5B79263B072B00F2CF
:103DF0004D8201A252F823F0193E0800173F080037
:103E00008D4208009D3E08008B3F080015420800C7
:103E1000A1410800FD3F08001F4B5B693B6297F81A
:103E20002030BB7397F82130FB7397F822303B7436
:103E300097F823307B74184B9B693B6297F82030CE
:103E4000BB7497F82130FB7497F822303B7597F8D4
:103E500023307B75104BDB6A3B6297F82030BB75D3
:103E600097F82130FB7597F822303B7697F823308E
:103E70007B7697F8262007F10C03104619460E2290
:103E8000044B9847034687F8273000E24025072077
:103E900069320900CD47090008270720BE4BD3F837
:103EA00088303B6297F82030BB7397F82130FB7362
:103EB00097F822303B7497F823307B74B64BD3F8D5
:103EC0008C303B6297F82030BB7497F82130FB743C
:103ED00097F822303B7597F823307B75AE4BD3F8BB
:103EE000A4303B6297F82030BB7597F82130FB7502
:103EF00097F822303B7697F823307B7697F8262088
:103F000007F10C03104619460E22A44B98470346AE
:103F100087F82730BBE1A04B5B6E3B6297F82030FF
:103F2000BB7397F82130FB7397F822303B7497F8F6
:103F300023307B74984B1B6E3B6297F82030BB7428
:103F400097F82130FB7497F822303B7597F82330AF
:103F50007B75914B9B693B6297F82030BB7597F856
:103F60002130FB7597F822303B7697F823307B762B
:103F700097F8262007F10C03104619460E22874BAE
:103F80009847034687F8273081E1834B9B6E3B625D
:103F900097F82030BB7397F82130FB7397F82230E5
:103FA0003B7497F823307B747B4BDB6E3B6297F856
:103FB0002030BB7497F82130FB7497F822303B75A2
:103FC00097F823307B75C8233B6297F82030BB7588
:103FD00097F82130FB7597F822303B7697F823301D
:103FE0007B7697F8262007F10C03104619460E221F
:103FF0006A4B9847034687F8273048E1664BD3F869
:10400000A4303B6297F82030BB7397F82130FB73E4
:1040100097F822303B7497F823307B745E4B9B6992
:104020003B6297F82030BB7497F82130FB7497F807
:1040300022303B7597F823307B75574B5B693B62A9
:1040400097F82030BB7597F82130FB7597F8223030
:104050003B7697F823307B764F4B5B6B3B6297F850
:104060002030BB7697F82130FB7697F822303B77EB
:1040700097F823307B77484B1B6B3B6297F82030D7
:10408000BB7797F82130FB7797F8223087F82030FC
:1040900097F8233087F821303F4B1B6D3B6297F830
:1040A000203087F8223097F8213087F8233097F8AE
:1040B000223087F8243097F8233087F82530364BA4
:1040C000DB6D3B6297F8203087F8263097F8213077
:1040D00087F8273097F8223087F8283097F8233070
:1040E00087F829302C4B9B6D3B6297F8203087F87E
:1040F0002A3097F8213087F82B3097F8223087F84C
:104100002C3097F8233087F82D30234B5B6D3B62C2
:1041100097F8203087F82E3097F8213087F82F3025
:1041200097F8223087F8303097F8233087F831300D
:10413000194BDB693B6297F8203087F8323097F8EB
:10414000213087F8333097F8223087F8343097F8E9
:10415000233087F83530104B9B6B3B6297F820304B
:1041600087F8363097F8213087F8373097F82230C3
:1041700087F8383097F8233087F8393097F82620B9
:1041800007F10C03104619462E22044B98470346AC
:1041900087F827307BE000BF08270720CD470900BC
:1041A000A24B1B6F3B6297F82030BB7397F821300E
:1041B000FB7397F822303B7497F823307B749B4B4A
:1041C0005B6F3B6297F82030BB7497F82130FB742B
:1041D00097F822303B7597F823307B754FF4C873FE
:1041E0003B6297F82030BB7597F82130FB7597F844
:1041F00022303B7697F823307B7697F8262007F11C
:104200000C03104619460E22894B9847034687F83F
:1042100027303CE0854BD3F890303B6297F8203054
:10422000BB7397F82130FB7397F822303B7497F8F3
:1042300023307B747D4BD3F894303B6297F8203069
:10424000BB7497F82130FB7497F822303B7597F8D0
:1042500023307B754FF4FA733B6297F82030BB75BF
:1042600097F82130FB7597F822303B7697F823308A
:104270007B7697F8262007F10C03104619460E228C
:104280006B4B9847034687F8273000E000BF00E0FB
:1042900000BFC6E0674B1B7E002B00F0C180654B62
:1042A0001B79122B00D0BBE0624B5B79252B18D811
:1042B000604B5B797B735F4B9B7987F820305D4B5C
:1042C000DB7987F821305B4B1B7A87F82230594B1A
:1042D0005B7A87F823307B7B19463B6A534A42F866
:1042E0002130544B5B79053B202B00F2978001A2D3
:1042F00052F823F01D4408001D4408001D44080026
:104300001D4408001D4408001D4408001D44080009
:104310001D4408001D4408001D4408001D440800F9
:104320001D4408001D4408001D4408001D440800E9
:104330001D4408001D4408001D4408001D440800D9
:104340007943080091430800A9430800B9430800D5
:10435000C9430800D94308001D4408001D44080053
:104360001D4408001D440800E9430800F343080009
:10437000FD4308000D4408003B6A2F4AA2FB0323BB
:10438000DA082E4B1046984702462D4B9A6446E0B9
:104390003B6A294AA2FB0323DA08284B10469847B8
:1043A0000246274BDA643AE03A6A244B10469847B3
:1043B0000246234B5A6332E03A6A204B1046984734
:1043C00002461F4B1A632AE03A6A1C4B1046984774
:1043D00002461B4B5A6122E03A6A184B1046984736
:1043E0000246174B1A611AE03B6A9AB2144B1A80C4
:1043F00015E03B6A9AB2124B5A8010E03A6A0F4BB2
:104400001046984702460E4BDA6008E03A6A0B4BBA
:104410001046984702460A4B9A6000E000BF00BF72
:1044200000BF18462837BD4680BD00BF08270720BB
:10443000CD47090040250720CDCCCCCCC5BE090016
:104440000C23072080B400AF00231846BD465DF85A
:10445000047B704780B58CB000AF0346FB7100232E
:1044600087F82830002387F82730002387F82F307B
:10447000002387F82630002387F825300023BB85EA
:104480000023FB6100233B62452387F82B30002388
:1044900087F82A30FA7907F1280310461946B94BF4
:1044A0009847034687F8293097F828300E2B09D013
:1044B000102B00D00DE00220B34B9847034687F83D
:1044C000293006E00020B04B9847034687F8293092
:1044D00000BF97F82830102B23D11320AB4B9847FF
:1044E000034687F829301420A84B9847034687F8DD
:1044F00029301120A54B9847034687F829300C2016
:10450000A24B9847034687F829300E209F4B9847C7
:10451000034687F829300D209C4B9847034687F8BF
:1045200029309B4B1B780A2B00F2B68401A252F86B
:1045300023F000BF61450800994E0800B547080008
:10454000DF470800794808005B480800374C08003E
:10455000A74B0800994E0800C34B0800D54B080034
:1045600097F82830013B122B00F2098101A252F882
:1045700023F000BFC14508000D4608006D47080044
:104580007F4708007F4708007F4708007F470800F3
:104590007F4708007F4708007F4708007F470800E3
:1045A0007F4708007F4708007F4708007F470800D3
:1045B0007F4708007F4708007F47080073470800CF
:1045C000744B1B7E002B20D0724B1B79042B00D028
:1045D0001BE0162387F82B3004233B7707F11C03DD
:1045E0000133042019466C4B9847034687F829305D
:1045F00097F82B2007F11C03104619460222674B3F
:104600009847034687F8293000BFB9E0614B1B7E0D
:10461000002B00F0AA805F4B5B793B765D4B9B796A
:104620007B765C4BDB79BB765A4B1B7AFB76594B1E
:104630001B79053B202B00F2978001A252F823F052
:10464000694708006947080069470800694708008A
:10465000694708006947080069470800694708007A
:10466000694708006947080069470800694708006A
:10467000694708006947080069470800694708005A
:10468000694708006947080069470800C5460800EF
:10469000DD460800F54608000547080015470800F4
:1046A000254708006947080069470800694708006E
:1046B00069470800354708003F4708004947080098
:1046C00059470800BB69364AA2FB0323DA08354B79
:1046D000104698470246344B9A6446E0BB69304A1C
:1046E000A2FB0323DA082F4B1046984702462E4BB5
:1046F000DA643AE0BA692B4B1046984702462A4BD7
:104700005A6332E0BA69274B104698470246264B57
:104710001A632AE0BA69234B104698470246224B97
:104720005A6122E0BA691F4B1046984702461E4B59
:104730001A611AE0BB699AB21B4B1A8015E0BB697B
:104740009AB2194B5A8010E0BA69164B1046984736
:104750000246154BDA6008E0BA69124B10469847DA
:104760000246114B9A6000E000BF09E00F4B9847EA
:1047700006E00F4B9847034687F8293000E000BF5A
:104780008AE300BFB14E0800C5280800792408005C
:10479000C81A07204025072069320900CD470900C3
:1047A000CDCCCCCCC5BE09000C230720795E080017
:1047B0007958080097F828300F2B00D00EE0B24847
:1047C000B24B98470023FB8207F1160307201946D6
:1047D000AF4B9847AF4B03221A7000BF5CE397F8CA
:1047E00028300F2B00D037E00023BB8207F11403E1
:1047F0000A201946A64B9847BB8A002B2BD11820BC
:10480000A5490522A54B9847A54B984702200021B2
:10481000A44B9847012042F21071A24B9847C82040
:10482000A14B9847012041F288319E4B9847C82000
:104830009D4B9847012040F6AC519A4B9847C820B1
:10484000994B9847012040F6C411964B9847914BDD
:1048500005221A70FFE700BF1EE397F82830102BDF
:1048600000D008E0012040F6C4118E4B9847894BD8
:1048700004221A7000BF0FE397F82830013B132B76
:1048800000F2098301A252F823F000BFDD480800BE
:1048900029490800974E0800594B08005F4B080053
:1048A0006B4B0800974E0800974E0800974E080083
:1048B000974E0800974E0800974E0800974E080044
:1048C000A34B0800A34B0800C14A0800974E0800FC
:1048D000974E0800714B08007D4B0800734B1B7E00
:1048E000002B20D0714B1B79042B00D01BE016232A
:1048F00087F82B3004233B7707F11C030133042096
:1049000019466B4B9847034687F8293097F82B20B8
:1049100007F11C03104619460222604B98470346D4
:1049200087F8293000BF3DE1604B1B7E002B00F073
:10493000AA805E4B5B793B745C4B9B797B745B4BD1
:10494000DB79BB74594B1B7AFB74584B1B79053BC5
:10495000202B00F2978001A252F823F0854A08002C
:10496000854A0800854A0800854A0800854A0800EB
:10497000854A0800854A0800854A0800854A0800DB
:10498000854A0800854A0800854A0800854A0800CB
:10499000854A0800854A0800854A0800854A0800BB
:1049A000854A0800854A0800E1490800F9490800DD
:1049B000114A0800214A0800314A0800414A08000B
:1049C000854A0800854A0800854A0800854A08008B
:1049D000514A08005B4A0800654A0800754A080009
:1049E0003B69344AA2FB0323DA08334B104698474D
:1049F0000246324B9A6446E03B692E4AA2FB0323EF
:104A0000DA082D4B1046984702462C4BDA643AE000
:104A10003A69294B104698470246284B5A6332E0C0
:104A20003A69254B104698470246244B1A632AE000
:104A30003A69214B104698470246204B5A6122E0C2
:104A40003A691D4B1046984702461C4B1A611AE002
:104A50003B699AB2194B1A8015E03B699AB2174B21
:104A60005A8010E03A69144B104698470246134B9F
:104A7000DA6008E03A69104B1046984702460F4B3F
:104A80009A6000E000BF8DE0CA1A0720B96D0800E7
:104A900055AD0800C81A072064F30900CD47090086
:104AA000DD2D0900B9F3080069E30800402507205F
:104AB00069320900CDCCCCCCC5BE09000C2307203F
:104AC00006200021B54B98470D200021B44B984794
:104AD000B44B9847B44B1B780133DAB2B24B1A701F
:104AE000B14B1B783C2B13D1B04B9847034687F84A
:104AF0002930AD4B00221A70AB4B5B780133DAB230
:104B0000A94B5A70A84BDB780133DAB2A64BDA70A6
:104B1000A74B98470346002B1DD10320A54B984770
:104B2000A54B9847034687F82930A44B98470320A4
:104B3000A34B98471120A34B9847A34B98470420B9
:104B40000021964B98470C200021954B98479F4B8E
:104B500006221A7026E025E09D4B984722E09D4BE7
:104B600098479A4B07221A701CE09B4B984719E014
:104B70009A4B9847034687F8293013E007F127033B
:104B800037201946964B984707F1260311201946FE
:104B9000934B984707F125030E201946904B9847F1
:104BA00000E000BF77E197F82830032B02D0042BF8
:104BB00003D005E08B4B984702E0854B984700BF38
:104BC0006AE197F82830032B00D002E0864B984723
:104BD00000BF61E197F82830012B05D0032B00D0EE
:104BE00028E0804B984725E0804B1B7E002B20D08F
:104BF0007E4B1B79042B00D01BE0162387F82B304B
:104C000004233B7707F11C03013304201946784B3A
:104C10009847034687F8293097F82B2007F11C03A3
:104C2000104619460222734B9847034687F82930ED
:104C300000BF00BF30E197F82830012B02D0022BD3
:104C400044D027E1694B1B7E002B3ED0674B1B797C
:104C5000042B02D0212B1CD037E0162387F82B30F1
:104C600002233B7707F11C03013304201946604BF4
:104C70009847034687F8293097F82B2007F11C0343
:104C80001046194602225B4B9847034687F82930A5
:104C90001BE0162387F82B3023233B7707F11C03F7
:104CA000013304201946524B9847034687F82930B0
:104CB00097F82B2007F11C031046194602224D4B92
:104CC0009847034687F8293000BFE3E0474B1B7E37
:104CD000002B00F0DE80454B5B793B73434B9B79A7
:104CE0007B73424BDB79BB73404B1B7AFB733F4BAF
:104CF0001B79053B202B00F2CB8001A252F823F058
:104D0000914E0800914E0800914E0800914E080007
:104D1000914E0800914E0800914E0800914E0800F7
:104D2000914E0800914E0800914E0800914E0800E7
:104D3000914E0800914E0800914E0800914E0800D7
:104D4000914E0800914E0800914E0800854D0800D4
:104D5000054E08001D4E08002D4E08003D4E08006F
:104D60004D4E0800914E0800914E0800914E0800EB
:104D7000914E08005D4E0800674E0800714E080015
:104D8000814E0800FB681C4AA2FB0323DA081B4B78
:104D90001046984702461A4B9A647AE0B9F3080025
:104DA000B9E90800C158080094230720E54F08001E
:104DB00069500800B92B0900915008000D2C09001A
:104DC00091700800F12D0900A1580800C81A0720A9
:104DD0002D57080025580800E957080079580800A1
:104DE000AD240800B95E0800795E08004025072060
:104DF00069320900CD470900CDCCCCCCC5BE090035
:104E00000C230720FB68274AA2FB0323DA08264B62
:104E1000104698470246254BDA643AE0FA68224B7E
:104E2000104698470246214B5A6332E0FA681E4BFF
:104E30001046984702461D4B1A632AE0FA681A4B3F
:104E4000104698470246194B5A6122E0FA68164B01
:104E5000104698470246154B1A611AE0FB689AB251
:104E6000124B1A8015E0FB689AB2104B5A8010E082
:104E7000FA680D4B1046984702460C4BDA6008E082
:104E8000FA68094B104698470246084B9A6000E0C2
:104E900000BF00BF00E000BF002318463037BD460A
:104EA00080BD00BFCDCCCCCCC5BE09000C230720F3
:104EB00080B483B000AF03463960FB71FB790D3BD2
:104EC000272B00F2868001A252F823F0754F0800CC
:104ED0006D4F0800D34F0800D34F0800D34F080090
:104EE000D34F0800D34F0800D34F0800D34F08001A
:104EF000D34F08007D4F0800854F08008D4F0800F4
:104F0000954F0800D34F0800D34F0800D34F080037
:104F1000D34F0800D34F0800D34F0800D34F0800E9
:104F2000D34F0800D34F0800CD4F0800C54F0800ED
:104F3000D34F0800D34F0800D34F0800D34F0800C9
:104F4000D34F0800D34F0800D34F0800D34F0800B9
:104F5000D34F08009D4F0800D34F0800A54F08000D
:104F6000AD4F0800B54F0800BD4F08003B68012257
:104F70001A702FE03B6802221A702BE03B68032274
:104F80001A7027E03B6804221A7023E03B68052270
:104F90001A701FE03B6806221A701BE03B680E2265
:104FA0001A7017E03B680F221A7013E03B6810225A
:104FB0001A700FE03B6811221A700BE03B68122256
:104FC0001A7007E03B6813221A7003E03B68142252
:104FD0001A7000BF002318460C37BD465DF8047BED
:104FE000704700BF80B584B000AF0423FB73452336
:104FF000BB733B1D00221A60043300221A80023367
:1050000000221A7001330A23BB7305233B71144B32
:10501000DB787B71124B1B79BB71114B1B78FB71D9
:105020000F4BDB78C3F10203DBB23B720C4B1B79F5
:105030005B42DBB27B720A4B1B78C3F13C03DBB2F1
:10504000BB72BA7B3B1D104619460722054B984799
:105050000346FB73002318461037BD4680BD00BFD2
:1050600094230720CD47090080B483B000AF042308
:10507000FB71064BDB78022B01D90023FB71FB7916
:1050800018460C37BD465DF8047B70479423072013
:1050900080B582B000AF0023FB710023BB71104BC1
:1050A00000221A700E4B00225A700D4B00229A708B
:1050B0000B4B0022DA700A4B00221A71BB1D15201F
:1050C00019460022074B98470346FB714720064BC1
:1050D00098470346FB71FB7918460837BD4680BDEB
:1050E00094230720CD4709007D96080080B584B041
:1050F00000AF78600023FB730023BB7345237B73F1
:105100000023BB736EE0BA7B3A4913465B0013443D
:105110005B000B441978BA7B13465B0013445B00B9
:10512000344A1344013308461946334B9847BA7B37
:10513000304913465B0013445B000B445B78002B43
:1051400023D0BA7B2B4913465B0013445B000B440E
:105150009B7883F00103DBB2002B40D0BA7B25495A
:1051600013465B0013445B000B4401229A70BA7B28
:10517000204913465B0013445B000B441B78184620
:105180001E4B98470346FB7329E0BA7B1949134627
:105190005B0013445B000B449B78002B1FD0BA7B51
:1051A000144913465B0013445B000B4400229A70C1
:1051B00007237B73BA7B0F4913465B0013445B00E4
:1051C0000B441B783B7200237B727A7B07F1080348
:1051D0001046194602220A4B98470346FB73BB7BD5
:1051E0000133BB73BB7B142B8DD9FB7B1846103767
:1051F000BD4680BD800D0720AD240800095208007F
:10520000CD4709000000000090B589B000AF03460B
:10521000FB710023BB770023BB810023BB730023FA
:10522000BB614523FB7500237B810023FB77FB7962
:10523000013B3A2B00F23D8201A252F823F000BF5D
:105240002D530800B3560800B3560800B3560800A3
:105250004F530800655308006D5608007956080042
:105260008F560800B3560800B3560800355608009C
:1052700041560800575608007B5308007B5308002E
:105280003754080037540800F3540800F35408005A
:10529000A1550800A155080005560800055608004C
:1052A000B3560800B3560800B3560800B3560800BA
:1052B000B3560800B3560800B3560800B3560800AA
:1052C000B3560800B3560800B3560800B35608009A
:1052D000B3560800B3560800B3560800B35608008A
:1052E000B3560800B3560800B3560800B35608007A
:1052F0009B5608009B560800B3560800B35608009A
:10530000B3560800B3560800B3560800A756080065
:10531000A7560800A7560800B3560800B356080061
:10532000B35608001B5608001B560800A44B9847AC
:10533000A44B0A221A701820A3490322A34B9847B2
:1053400007F10A0301201946A14B9847B2E19C4B93
:1053500098479C4B0A221A7018209E4904229B4BA6
:105360009847A7E1964B9847964B0A221A70182047
:1053700099490422954B98479CE112209749944BF8
:105380009847964B1B881A46954B104698470246FD
:105390000B46944C1046194687A3D3E90023A04737
:1053A00002460B46904C104619464FF000028F4BB8
:1053B000A04702460B46104619468D4B98470346B8
:1053C0009AB28C4B1A808B4B1B881BB24FF47A72AB
:1053D00002FB03F3884A82FB03121A441212DB1702
:1053E000D31A9BB203F6B8339BB29AB2834B1A809E
:1053F000824B1B881BB2B3F5666F09DD704B984773
:1054000018207F490322714B98476E4B0A221A706D
:105410007A4B1B881BB240F6AB5293420ADC684BB6
:105420009847182076490322684B9847654B0A2213
:105430001A703FE13EE113206849654B9847674B7E
:105440001B881A46664B1046984702460B46654C29
:105450001046194658A3D3E90023A04702460B463D
:10546000614C104619464FF00002604BA0470246BF
:105470000B46104619465E4B984703469AB25D4B61
:105480001A805C4B1B881BB24FF47A7202FB03F349
:10549000594A82FB03121A441212DB17D31A9BB229
:1054A00003F6B8339BB29AB2544B1A80534B1B8805
:1054B0001BB2B3F5666F09DD414B98471820504980
:1054C0000322424B98473F4B0A221A704B4B1B88D2
:1054D0001BB240F6AB5293420ADC394B9847182076
:1054E00047490322394B9847364B0A221A70E1E0AC
:1054F000E0E014203949364B9847384B1B881A4650
:10550000374B1046984702460B46364C1046194614
:1055100029A3D3E90023A04702460B46324C10468C
:1055200019464FF00002314BA04702460B46104689
:1055300019462F4B98470346BB82B7F914304FF4F6
:105540007A7202FB03F32C4A82FB03121A441212F2
:10555000DB17D31A9BB203F6B8339BB27B82B7F941
:105560001230B3F5666F09DD154B984718202449B2
:105570000322164B9847134B0A221A70B7F91230C0
:1055800040F6AB5293420ADC0D4B984718201C4959
:1055900003220E4B98470B4B0A221A708AE089E0CF
:1055A000074B9847182016490322084B9847054B8C
:1055B0000A221A707EE000BFC3F5285C8FC2E93F63
:1055C0002D570800C81A07206CF30900CD470900C1
:1055D00055AD080070F3090078F30900CC1A0720D4
:1055E00029B60900F5B609008DB3090000608F40A7
:1055F00029BC09008C230720E3698FAB9023072087
:1056000080F30900414B9847182041490322414B40
:105610009847414B0A221A704CE00023FB77182070
:105620003E4903223B4B9847384B98473A4B0A2256
:105630001A703FE0354B9847374B0A221A7039E011
:10564000182037490322334B9847304B9847324B49
:105650000A221A702EE01820314903222D4B984758
:105660002A4B98472C4B0A221A7023E0274B984765
:10567000294B0A221A701DE018202A490922254BBD
:105680009847224B9847244B0A221A7012E01F4B6E
:105690009847214B0A221A700CE01C4B98471E4B6E
:1056A0000A221A7006E0194B98471B4B0A221A70FF
:1056B00000E000BFFB7F002B24D0FB7F3B73012366
:1056C0007B730223BB730723FB750A20164B984795
:1056D000FA7D07F10C031046194603220D4B98473B
:1056E0000346BB772B23FB7501233B7302237B739C
:1056F000FA7D07F10C03104619460222054B984724
:105700000346BB7718462437BD4690BD2D57080089
:1057100084F30900CD470900C81A072088F309005F
:105720008CF3090090F3090069E3080080B582B0AA
:1057300000AF0023FB71244B1B78002B40D0224B81
:105740001B78092B3CD0204B1B78072B38D01E4BE5
:105750001B780A2B34D01D4B00221A701B4B0022E1
:105760005A701A4B00229A70184B0022DA70174BAD
:1057700000221A71164B98470346FB711120154BF6
:1057800098470346FB71144B98470346FB7103206F
:10579000124B98470346FB7104200021104B984799
:1057A00011200C4B98470346FB71074B00221A70DF
:1057B000BB1D1420194600220A4B98470346FB7173
:1057C00018460837BD4680BDC81A07209423072015
:1057D000852D0900F12D09000D2C0900917008009C
:1057E000F1E30800CD47090080B582B000AF002387
:1057F000FB71094B98470346FB71084B08221A704E
:10580000BB1D402019460022054B98470346FB71FB
:1058100018460837BD4680BDC12D0900C81A0720AB
:10582000CD47090080B582B000AF0023FB710F4B5C
:105830001B78002B15D00D4B1B78023B032B0FD888
:105840000B4B98470346FB71084B07221A70BB1D90
:10585000402019460022074B98470346FB7100E0A1
:1058600000BF18460837BD4680BD00BFC81A0720D4
:10587000C12D0900CD47090080B582B000AF0023DB
:10588000FB714523BB717B1D1846044B98470346AB
:10589000FB71FB7918460837BD4680BDED50080006
:1058A00080B582B000AF0023FB710120034B984705
:1058B000FB7918460837BD4680BD00BF412C090062
:1058C0002DE9904393B000AF07F1100300221A6056
:1058D000043300221A60043300221A6004330022C9
:1058E0001A60043300221A60043300221A60043361
:1058F00000221A60043300221A60043300221A6066
:10590000043300221A600433002387F84730002351
:1059100087F84630452387F845302A2387F84530F5
:1059200005233B7497F84630013387F84630BB1D9A
:1059300008201946084B9847FB88BB60FB88B3F5E5
:10594000166F0DD9FB88054AA2FB03231B099BB2E6
:105950000933BB6006E000BF55AD0800CDCCCCCC10
:105960006423BB608B23BB6097F846305A1C87F8D2
:1059700046203A7A07F148010B4403F8382C97F88F
:1059800046305A1C87F846207A7A07F148010B44C2
:1059900003F8382C97F846305A1C87F84620BA7A14
:1059A00007F148010B4403F8382C97F846305A1C8D
:1059B00087F84620FA7A07F148010B4403F8382C9F
:1059C000BB1D14201946C04B98470023BB60BA6822
:1059D000BE4B1046984702460B46BD4C1046194632
:1059E000ADA3D3E90023A04702460B461046194653
:1059F000B84B984703463B64B74B386C9847024610
:105A00000B46B34C10461946A5A3D3E90023A04783
:105A100002460B4690469946AF4B386C9847024673
:105A20000B46AB4C40464946A04702460B469046C3
:105A30009946A94B386C984702460B46A44C104631
:105A4000194699A3D3E90023A04702460B46A34C6D
:105A500040464946A04702460B46A04C1046194610
:105A600093A3D3E90023A04702460B469B4C104664
:105A7000194691A3D3E90023A04702460B461046DE
:105A80001946944B98470346FB63954B1B68954A10
:105A90001360944B1A68944B1046944998470346F8
:105AA0001A46934B1046984703469BB2BB6097F843
:105AB00046305A1C87F846203A7A07F148010B44D1
:105AC00003F8382C97F846305A1C87F846207A7A23
:105AD00007F148010B4403F8382C97F846305A1C5C
